:100000000B4000080B6000066F00803D13000000ED
:100010000BA100028B210102B700000093800016A3
:100020000B41000023A020000B41010023A220006F
:100030000BC1010023A4200023A6300023A8400008
:1000400023AA500023AC600023AE700023A08002DE
:1000500023A2900223A4A00223A6B00223A8C002D8
:1000600023AAD00223ACE00223AEF00223A00005B5
:1000700023A2100523A4200523A6300523A84005AC
:1000800023AA500523AC600523AE700523A080078A
:1000900023A2900723A4A00723A6B00723A8C00784
:1000A00023AAD00723ACE00723AEF00737010000F6
:1000B0001301013E37050000130505168BC500002E
:1000C000EF00C03F9300050003A100000B200102D8
:1000D00003A140008B20010203A180000B2101023B
:1000E00083A1C00003A2000183A2400103A38001F9
:1000F00083A3C00103A4000283A4400203A58002DD
:1001000083A5C00203A6000383A6400303A78003C0
:1001100083A7C00303A8000483A8400403A98004A4
:1001200083A9C00403AA000583AA400503AB800588
:1001300083ABC00503AC000683AC400603AD80066C
:1001400083ADC00603AE000783AE400703AF800750
:1001500083AFC0078BC000000B4101000B000004FF
:10016000000000000000000000000000000000008F
:10017000000000000000000000000000000000007F
:10018000000000000000000000000000000000006F
:10019000000000000000000000000000000000005F
:1003E000EF0080017300100000000000000000001A
:1003F0000000000000000000130101FF232611008F
:10040000B7170100238C07F8371701001307478F30
:10041000B7170100938707F76370F702B71701005A
:100420009387478F37170100130707F723A00700AB
:1004300093874700E3ECE7FE13050000EF005065EB
:10044000EF0040018320C10013010101678000001B
:1004500000000000130101FF232611002324810066
:1004600013050000EF00C00E37050001EF00800FFC
:1004700037058001EF008010EF00C011B7170100B1
:1004800013071000238CE7F8EF00801437540000A6
:100490006F008000EF008012930704E29387F7FF5C
:1004A000E39E07FE6FF01FFF00000000B70700800B
:1004B00003A507016780000000000000130101FF91
:1004C0002326110023248100232291009304050098
:1004D000B717010083C787F96384070213840500F7
:1004E00093F78500638A0700B717010003A747F752
:1004F000930710006302F70213740401631E0402E1
:10050000138504008320C10003248100832441005B
:100510001301010167800000B717010003A747F826
:1005200093071000E31AF7FCB717010023A207F89E
:10053000EF0040066FF05FFCB707008003A50702DD
:100540001375F50FEF0040596FF09FFB000000009E
:100550001375F501B707008023A4A7026780000088
:1005600000000000B717010023AEA7F6B707008010
:1005700023A8A7026780000000000000B717010051
:1005800023A0A7F8B707008023AAA702678000006E
:1005900000000000B70700801307100023A6E70241
:1005A000B7170100938787F703A7070013371700D2
:1005B00023A0E7006780000000000000B7170100DB
:1005C0001307100023A2E7F8678000000000000076
:1005D000B71701001307100023AAE7F66780000091
:1005E00000000000B717010023AA07F6678000008B
:1005F00000000000B717010083A787F76388070092
:10060000130710006382E70267800000B71701003C
:1006100083A707F83305F500B70700403365F500F9
:100620002320B50067800000B717010083A7C7F734
:100630003305F500B70700403365F5002320B5000A
:100640006FF09FFC00000000B717010083A787F739
:100650006398070213070000B71501003706004032
:10066000B766090083A705F8B307F700B3E7C7002B
:1006700023A0070013074700E316D7FE678000009A
:10068000130710006384E700678000001307000071
:10069000B715010037060040B766090083A7C5F704
:1006A000B307F700B3E7C70023A00700130747000D
:1006B000E316D7FE6FF05FFD00000000B7170100E2
:1006C00083A787F7639A0702130700003715010015
:1006D000B70500401306F0FFB7660900832705F849
:1006E000B307F700B3E7B70023A0C700130747001D
:1006F000E316D7FE67800000130710006384E7004D
:10070000678000001307000037150100B70500409F
:100710001306F0FFB76609008327C5F7B307F70094
:10072000B3E7B70023A0C70013074700E316D7FEBF
:100730006FF01FFD00000000130101FF23261100D0
:1007400093051000370501001305C5A6EF00C0444E
:100750009305100037050100130545A8EF00C043BD
:100760009305100037050100130585AAEF00C0426C
:100770009305100037050100130585ACEF00C0415B
:100780009305100037050100130585AEEF00C0404A
:100790009305100037050100130545B1EF00C03F78
:1007A0009305100037050100130505B4EF00C03EA6
:1007B0009305100037050100130585B6EF00C03D15
:1007C00093051000370501001305C5B8EF00C03CC4
:1007D0008320C100130101016780000000000000B8
:1007E000B707008083A7470293F6170013E71700A7
:1007F00063980600B707008023A2E7026780000025
:1008000013F7E7FF6FF01FFF0000000037070080BD
:100810008327470293E717002322F702678000002F
:1008200000000000370700808327470293F7E7FFA7
:100830002322F7026780000000000000130101FF7F
:100840002326110023248100232291001306400057
:10085000B7050100938505BB371501001305C5C118
:10086000EF20C05E630A050A13063000B7050100D9
:10087000938585BB371501001305C5C1EF20005DC9
:100880006308050A13063000B70501009385C5BB50
:10089000371501001305C5C1EF20405B630E050845
:1008A00013063000B7050100938505BC371501001C
:1008B0001305C5C1EF208059631E0508B714010058
:1008C0001385F4C1EF20805613060500371401008C
:1008D0001304C4F82320A4009385F4C1B7140100C5
:1008E0001385C4B1EF20805A832704001387C4B155
:1008F000B387E700238007001385C4B1EF1000170A
:10090000631005049305100037050100130545BC6D
:10091000EF0080286F008000EFF01FE28320C1000D
:10092000032481008324410013010101678000003A
:10093000EF00C0396FF09FFEEF10801C6FF01FFEBC
:1009400093051000370501001305C5BDEF00C02455
:100950006FF0DFFC13068000B7050100938545BFEB
:10096000371501001305C5C1EF20404E6300050A8D
:1009700013068000B7050100938505C137150100F6
:100980001305C5C1EF20804C630E050813067000E7
:10099000B70501009385C5C2371501001305C5C110
:1009A000EF20C04A630C050813066000B70501007C
:1009B000938545C4371501001305C5C1EF200049D3
:1009C000630A050813067000B70501009385C5C4C6
:1009D000371501001305C5C1EF2040476314050A10
:1009E000B717010083A787F7638207081307100072
:1009F000E396E7F2EFF01FBA930510003705010008
:100A0000130585C6EF0040196FF05FF1EFF0DFC30B
:100A10009305100037050100130505C0EF00C0174E
:100A20006FF0DFEFEFF09FC993051000370501006D
:100A30001305C5C1EF0040166FF05FEEEFF09FBAEF
:100A40009305100037050100130545C3EF00C014DE
:100A50006FF0DFECEFF0DFB7930510003705010012
:100A6000130545C3EF0040136FF05FEBEFF09FB24B
:100A70009305100037050100130545C5EF00C011AF
:100A80006FF0DFE913066000B70501009385C5C765
:100A9000371501001305C5C1EF20403BE31005E801
:100AA000B707008003A40701930500003705010084
:100AB000130545C8EF00400E13050400EF00802821
:100AC00093051000370501001305C5C8EF00C00CE1
:100AD0006FF0DFE400000000130101FF2326110086
:100AE000232481009307F00F6306F5061304050025
:100AF0009307F5FE93F7F70F13073000637EF704B3
:100B00009307A0006312F506B717010083A787F8C3
:100B1000371701001307C7C13387E7002300070019
:100B200013070005B3F7E70293871700636CF7001C
:100B3000B70600801307100523A00600938717004F
:100B4000E39CE7FEEFF09FCFB717010023A407F85F
:100B50006F008000EFF0DFC88320C1000324810014
:100B60001301010167800000EF0000143717010036
:100B7000130787F883260700B71701009387C7C1BB
:100B8000B387F60023808700938616002320D700C2
:100B90006FF09FFC00000000130101FF23261100ED
:100BA000232481002322910013040500938405006F
:100BB000EF20C027130704009306000037080080C9
:100BC000B7150100834707002320F800138605F9B5
:100BD00083270600938717002320F60093861600CC
:100BE00013071700E370D5FE638004049307000524
:100BF0003375F502130515009307F00463E6A702A9
:100C0000B7050080371601009306000523A00500F4
:100C1000130706F983270700938717002320F7009F
:100C200013051500E314D5FE8320C10003248100C1
:100C300083244100130101016780000000000000CF
:100C4000130101DF2326112013070500B706010059
:100C5000938606C9370601001306C6C9930500200E
:100C60001305010097200000E78080109305100015
:100C700013050100EFF05FF28320C1201301012171
:100C80006780000000000000130101FF232611000F
:100C900093051000EFF05FF08320C1001301010104
:100CA0006780000000000000B707008023A0A700B5
:100CB000B7170100938707F903A707001307170069
:100CC00023A0E700678000000000000037070080D5
:100CD0008327470293E727002322F702B717010073
:100CE00023A807F867800000000000003707008095
:100CF0008327470293E747002322F702B717010033
:100D0000938707F903A707009306C0033357D70259
:100D100023A0E7006780000000000000B3D5A50015
:100D200093F5150063980500371501001305858EAE
:100D300067800000371501001305458E67800000AD
:100D400000000000130101FE232E1100232C81005E
:100D500013040500634A0530B71601009386868E9A
:100D60009317140063C80730371701001307878EE5
:100D70009317240063C60730B71701009387878E47
:100D80001316340063440630371801001308888EA8
:100D90001316440063420630B71801009388888E0A
:100DA0001316540063400630371601001306868E72
:100DB0009315640063CE052EB71501009385858ECB
:100DC00013157400634C052E371501001305858E2D
:100DD0002324A1002322B1002320C10037060100F3
:100DE000130646CA93050010371501001305C5D137
:100DF00097200000E780C0F79317840063C6072C94
:100E0000371701001307878E9317940063C4072CCC
:100E1000B71701009387878E9316A40063C2062C30
:100E2000371801001308888E9316B40063C0062C8F
:100E3000B71801009388888E9316C40063CE062AE3
:100E4000B71601009386868E1316D400634C062ACB
:100E5000371601001306868E9315E40063CA052A2F
:100E6000B71501009385858E1315F4006348052A94
:100E7000371501001305858E2326A1002324B10018
:100E80002322C1002320D100371501009306C5D1CC
:100E900037060100130686CB930500101305C5D154
:100EA00097200000E780C0EC9317040163CE07266B
:100EB000371701001307878E9317140163CC072699
:100EC000B71701009387878E9316240163CA0626FD
:100ED000371801001308888E9316340163C806265C
:100EE000B71801009388888E9316440163C60626BE
:100EF000B71601009386868E1356A400137616004B
:100F000063120626371601001306868E9355940049
:100F100093F51500639E0524B71501009385858E12
:100F20001355840013751500631A05243715010045
:100F30001305858E2326A1002324B1002322C1009E
:100F40002320D100371501009306C5D137060100D3
:100F5000130686CB930500101305C5D1972000001A
:100F6000E78000E19357740093F71700639E072012
:100F7000371701001307878E9357640093F7170004
:100F8000639A0720B71701009387878E9356540002
:100F900093F6160063960620371801001308888E12
:100FA0009356440093F6160063920620B71801008A
:100FB0009388888E9356340093F61600639E061E1F
:100FC000B71601009386868E1356240013761600FA
:100FD000631A061E371601001306868E93551400F9
:100FE00093F515006396051EB71501009385858E50
:100FF000137414006314041E371501001305858E45
:101000002326A1002324B1002322C1002320D100E4
:10101000371401009306C4D137060100130686CBAE
:10102000930500101305C4D197200000E78040D439
:10103000930500001305C4D1EFF01FB61305C4D10A
:10104000EF10D05EB7170100938707F903A70700D9
:101050003305A70023A0A7008320C1010324810139
:101060001301010267800000B71601009386468EC7
:101070006FF01FCF371701001307478E6FF05FCF58
:10108000B71701009387478E6FF09FCF3718010085
:101090001308488E6FF0DFCFB71801009388488E91
:1010A0006FF01FD0371601001306468E6FF05FD029
:1010B000B71501009385458E6FF09FD0371501005D
:1010C0001305458E6FF0DFD0371701001307478EE9
:1010D0006FF09FD3B71701009387478E6FF0DFD370
:1010E000371801001308488E6FF01FD4B71801009D
:1010F0009388488E6FF05FD4B71601009386468EB2
:101100006FF09FD4371601001306468E6FF0DFD4C0
:10111000B71501009385458E6FF01FD53715010077
:101120001305458E6FF05FD5371701001307478E03
:101130006FF09FD8B71701009387478E6FF0DFD805
:10114000371801001308488E6FF01FD9B718010037
:101150009388488E6FF05FD9B71601009386468E4C
:101160006FF09FD9371601001306468E6FF01FDA15
:10117000B71501009385458E6FF09FDA3715010092
:101180001305458E6FF01FDB371701001307478EDD
:101190006FF09FDEB71701009387478E6FF01FDF58
:1011A000371801001308488E6FF09FDFB718010051
:1011B0009388488E6FF01FE0B71601009386468E25
:1011C0006FF09FE0371601001306468E6FF01FE1A7
:1011D000B71501009385458E6FF09FE1371501002B
:1011E0001305458E6FF0DFE100000000130101FFE1
:1011F00023261100232481009316050193D60601AE
:10120000370601001306C6CC930500103714010001
:101210001305C4D197200000E78080B59305000036
:101220001305C4D1EFF05F971305C4D1EF10104040
:10123000B7170100938707F903A707003305A70035
:1012400023A0A7008320C100032481001301010112
:1012500067800000000000008347050093F7F70D4A
:10126000638207021307150013050000130515001C
:101270008347070093F7F70D13071700E39807FE5E
:101280006780000013050000678000000000000078
:10129000B717010023AAA7F867800000000000002C
:1012A000B717010003A547F96780000000000000A0
:1012B000130101FF2326110023248100930605005A
:1012C00037060100130686CE93050010371401007F
:1012D0001305C4D197200000E78080A99305100072
:1012E0001305C4D1EFF05F8B6F0000000000000019
:1012F000130101FF23261100B7170100938747F957
:1013000083A60700130740006364D708939726005D
:1013100037070100130747CDB387E70083A707000E
:10132000678007009305100037050100130585CF7E
:10133000EFF09F868320C100130101016780000048
:101340009305100037050100130545D0EFF0DF8449
:101350006FF05FFE9305100037050100130585D17E
:10136000EFF09F836FF01FFD93051000370501001C
:10137000130585D2EFF05F826FF0DFFB930510005D
:10138000370501001305C5D3EFF01F816FF09FFAF9
:1013900093051000370501001305C5D4EFF0CFFF0A
:1013A0006FF05FF900000000130101FF23268100A8
:1013B00013040101930730009306800063FAA7002D
:1013C000B306A04093F6360013054500B386A60089
:1013D000B717010083A7C7E1638C070A03A70700BB
:1013E000371601001306C6E16368D70813850700A6
:1013F000371601001306C6E1938786006362F70281
:1014000083254500B307D5002320F6003307D740D6
:1014100023A0E7008327060023A2B7006F0040093E
:10142000832745002320F600130545006F00C00800
:10143000B305A440938505FE3387E64063EEE500DF
:10144000232006003388D700371701002326078F93
:10145000138507006F00C005130500006F00C0056D
:10146000130500006F0040051386470003270500A1
:1014700093070500E372D7F803A54700E31605FEBE
:10148000B385E700371501000325C58EE302B5FAE1
:10149000B717010003A5C78EB307A440938707FEC3
:1014A000E3E0D7FCB307D500371701002326F78EFA
:1014B0002320D500130545000324C10013010101B9
:1014C0006780000000000000630C05041307C5FFDF
:1014D000B717010083A7C7E16382070A03A60700C5
:1014E000B305F6006300B7040323C5FF33086700A4
:1014F00063860707636AF7089388470083A7470056
:10150000638C070003A60700B305F600630CB70061
:10151000638A0705E372F7FE2322F70023A0E800A1
:10152000678000008326C5FF3306D60023A0C700CE
:1015300083A64700E38606FE8325C5FF3307B70071
:10154000E390E6FE03A706003306C70023A0C7000A
:1015500003A7460023A2E70067800000B718010038
:101560009388C8E13306C300232EC5FE83A7470036
:101570002322F70023A0E80067800000B7180100CD
:101580009388C8E16FF05FF9B71801009388C8E14C
:101590006FF09FF800000000130101FE232E1100E0
:1015A000232C8100232A91002328210123263101A5
:1015B00013040500938405001305C5FF13073000CD
:1015C00093078000637AB700B307B04093F7370002
:1015D00013874500B387E700630E04020327C4FFA7
:1015E0006362F7043307F740930670009309040021
:1015F00063E6E606138509008320C1010324810107
:1016000083244101032901018329C100130101023F
:101610006780000013850400EFF01FD993090500CF
:101620006FF05FFD1309C7FF13850400EFF0DFD7EC
:1016300093090500E30005FC138604006374990018
:10164000130609009305040013850900EF10C04A32
:1016500013050400EFF05FE76FF0DFF93305F500E5
:10166000232EF4FE2320E50013054500EFF0DFE50F
:101670006FF05FF800000000130101FF2326110046
:101680002324810023229100B304B50213850400B2
:10169000EFF09FD113040500630A050013860400D0
:1016A0009305000097100000E78000541305040024
:1016B0008320C10003248100832441001301010120
:1016C0006780000000000000130101FF23261100C5
:1016D000EFF09FDF8320C10013010101678000004C
:1016E00000000000930730009308800063FAB70001
:1016F000B308B04093F8380093854500B388B8002C
:101700001308F5FFB377A800639607186308051858
:10171000130101FF2326810013040101B717010003
:101720009385C7E137130100930EC0FF130E00FE2F
:101730006F0000100326C38E3387CE403377070136
:1017400033071701B306CE40B306D40063ECE614AA
:10175000B307E6002326F38E23A0C5002320E6006E
:101760002322060013054600B306A040B3F7060186
:10177000639C0708B386F8006374D7040327060048
:101780003307E600832FC38E6390EF0A37170100FB
:101790000327C78E3307E440130707FE032806001C
:1017A0003388064163640711330FF600330F1F01BE
:1017B000371701002326E78F2320D6001387060062
:1017C000638E07082320F600B306F6001385060093
:1017D000B307F74013878800637CF706B386D80009
:1017E000B387174123A0F6008327460023A2F60003
:1017F0002322D60023201501130545000324C10030
:1018000013010101678000009307C600B307F04091
:10181000B3F707019387870083264600E38C06F41D
:10182000B3861701E37ED7F883A7050093854700A9
:1018300003A60500E30006F0032706001305460093
:10184000B306A040B3F70601E38807FC6FF0DFFBA7
:1018500023A0F600138546006FF05FFA9387880097
:1018600063F4E70283264600B307160123A0F500C0
:101870003307174123A0E70083A7050023A2D70061
:10188000130506006FF01FF78327460023A0F5001D
:101890006FF0DFF6130500006780000013050000FD
:1018A00067800000130500006FF05FF5130500006E
:1018B0006FF0DFF400000000130101FF2326110088
:1018C0009305050013050008EFF0DFE18320C10058
:1018D000130101016780000000000000130101FFF7
:1018E00023261100B307A04093F7F707B385A7009D
:1018F00013050008EFF01FDF8320C1001301010171
:101900006780000000000000130101FC232E11027B
:10191000232C8102130405001306800293050000A6
:101920001305810097100000E780002CB717010015
:1019300083A7C7E163880708371701000325C78E0F
:1019400093050000930600006F0040012326C102AA
:1019500003A74700630207029307070003A60700D7
:10196000B386C6009385150003A74700E31607FE5C
:101970003387C700E30CE5FCB717010083A7C78EC8
:101980003707000113070700B387E7402324F1005E
:101990002324D102B386D7402322D1022326B100CB
:1019A000130680029305810013050400EF10C01494
:1019B000130504008320C1030324810313010104E0
:1019C0006780000093050000930600006FF0DFFAC7
:1019D000000000000325C5FF1305C5FF6780000058
:1019E00000000000130500006780000000000000F8
:1019F000130101FD23261102232481021306001086
:101A000093050000371401001305C4E3971000008C
:101A1000E780801D9307F002230EF4E237150100E2
:101A2000130505F4EF0010099307050037170100AF
:101A30002320A7E213050000638A07008320C10268
:101A40000324810213010103678000009305C4E3AE
:101A50001305C100EF00D048B717010023A0A7E28B
:101A6000133515006FF09FFD00000000130101FD0C
:101A7000232611022324810223229102130405004C
:101A8000930505001305C100EF009045B71701004D
:101A900023A0A7E263080502B71701001307F002AD
:101AA000238EE7E29387C7E3A380070013050000B6
:101AB0008320C10203248102832441021301010314
:101AC000678000001306001093050000B7140100A2
:101AD0001385C4E397100000E7800011130504008C
:101AE000EF10C03413060500930504001385C4E30A
:101AF000EF10C039130510006FF09FFB00000000CD
:101B0000130101FC232E1102232C8102232A9102AE
:101B100023282103232631032324410323225103B5
:101B200023206103B71501009385C5E31305C100A8
:101B3000EF00103BB717010023A0A7E26314050ACA
:101B40009304C0033714010093890700371A01007A
:101B5000370B010037190100B70A01006F000003BD
:101B60009306DAE213068BD6930500101305C9D14C
:101B700097100000E780C01F930510001305C9D11E
:101B8000EFF08F819384F4FF638E0404930544E2A5
:101B90001305C100EF00903C23A0A9E263140504E3
:101BA000930744E283C79700638E0702930744E2DA
:101BB00083C7870093F70701E38407FA9306DAE205
:101BC0001386CAD5930500101305C9D197100000DC
:101BD000E780001A930510001305C9D1EFE0DFFB81
:101BE0006FF05FFA8320C103032481038324410340
:101BF000032901038329C102032A8102832A4102A6
:101C0000032B0102130101046780000000000000A3
:101C100067800000000000001305000067800000DE
:101C200000000000130101FF23261100130306002A
:101C3000B717010083A7078F638EB704B70700802B
:101C400023A2B7001307100023A4E70083A787008F
:101C500093F7870063920706370700808327870082
:101C600093F78700E38C07FEB71701009387478F30
:101C7000B708008037180100130848AF9387470062
:101C800003A7C80023AEE7FEE39A07FFB7170100DA
:101C900023A8B78E13860600B71701009387478FD6
:101CA000B3856700EF005065130500008320C10075
:101CB0001301010167800000B71701009387478F68
:101CC0006FF01FFB0000000003473500131787006B
:101CD00083472500B3E7E700139787008347150084
:101CE000B3E7E70093978700034505003365F500E8
:101CF0006780000000000000B717010003A7C7F9C4
:101D00009306E5FF832787009387E7FF63FCF600D0
:101D1000034527003305D502832747013305F50026
:101D200067800000130500006780000000000000CD
:101D3000371701008326C7F9231005000327850004
:101D4000130610006306C704130101FF23261100C8
:101D5000232481001304050003A686001305100048
:101D60006376C704631A070203C7060093073000AF
:101D70006308F7002326040003A506016F00800214
:101D800003A706012326E400E30807FE6F00000115
:101D900013051000678000002326E40013050700E8
:101DA000EFF09FF52328A400130500008320C10055
:101DB000032481001301010167800000000000007E
:101DC0009307100063F2A70CB717010003A7C7F928
:101DD0008326870093071000637AD50A130101FE5A
:101DE000232E110083470700930620006380D7024B
:101DF00093063000638AD704930710001385070009
:101E00008320C10113010102678000001376F50FE2
:101E1000135585008325C70093062000131616006E
:101E2000B305B5001305C100EFF0DFDF9307100025
:101E3000E31605FC8347D100939787000347C10051
:101E4000B3E7E7006FF09FFB1376F50713557500B6
:101E50008325C7009306400013162600B305B5007E
:101E60001305C100EFF01FDC93071000E31805F81D
:101E70001305C100EFF05FE5B70700109387F7FF88
:101E8000B377F5006FF09FF79307100013850700F5
:101E90006780000000000000130101FF23261100ED
:101EA00023248100232291002320210103540500D3
:101EB0001304140013140401135404019307300095
:101EC000630404040327050193073000630E07022F
:101ED000930405009377F40063940702B717010099
:101EE00003A9C7F9130717002328E5000325C50038
:101EF000631A050203574900930730006376E40034
:101F00002390840093070000138507008320C100FD
:101F100003248100832441000329010013010101EE
:101F200067800000834729009387F7FF1357440019
:101F3000B3F7E700E39607FCEFF09FE81307100004
:101F400093071000E372A7FC032789009307300072
:101F5000E37CE5FA23A6A400EFF01FDA23A8A4008F
:101F60006FF01FFA00000000130101FF232611008B
:101F7000232481002322910013040500938405008B
:101F8000930620001306E01FEFF0DFC913073000AF
:101F900063160502834714009397870003470400E4
:101FA000B3E7E7009397070193D70741B7B6FFFF61
:101FB000938656A513072000638ED70013050700EC
:101FC0008320C10003248100832441001301010107
:101FD00067800000930620001306600393850400C9
:101FE00013050400EFF01FC46316050283471400B5
:101FF0009397870003470400B3E7E700939707012F
:1020000093D70741B7460000938666141307000074
:10201000E386D7FA93062000130620059385040073
:1020200013050400EFF01FC013071000E31805F8B4
:102030000347140013178700834704003367F70032
:102040001317070113570741B7C7FFFF9387A7EB84
:102050003307F7003337E0006FF05FF60000000051
:10206000B717010083A7C7F903C70700930730001C
:102070006300F702130700008347B50193978700B9
:102080000345A50133E5A7003365E500678000003F
:102090000347550113178700834745013367F7004E
:1020A000131707016FF05FFD00000000130101FD31
:1020B00023261102232481022322910223202103BB
:1020C000232E3101232C4101232A510123286101B0
:1020D0002326710123248101130405009384050044
:1020E0001309060083470600130700026398E70000
:1020F0001309190083470900E38CE7FE938717FD56
:1021000093B717003309F90023240400034709009B
:102110009307F00163FEE700930A0000930B800031
:10212000130AF002130BE002130CB0006F00000A58
:1021300013050400EFF0DFBF9309050023800400BE
:102140006F00801213050400EFF01FD56312050E17
:10215000035604001376F600930600021316560089
:102160008325040113850400EFF0DFAB6316050C33
:1021700083C70400638A071283C7B40093F78700FC
:10218000E39207FC832744009385B700138704007C
:1021900013071700938717000346F7FF83C6F7FF5F
:1021A000E312D6FAE396F5FE8327440083C7B7000F
:1021B000639C070A83C7B40093F70701638207088B
:1021C00013850400EFF0DFE92324A4000326440074
:1021D0009306B600930706001307000293871700C3
:1021E000A38FE7FEE39CF6FE93860A0093870A001E
:1021F00093850B0013050002138717001377F70F61
:10220000B307F90083C707006372F50463804705CD
:10221000638C670363FCB60213881600B306D6000E
:102220002380F6009376F80F930707006FF0DFFC2A
:10223000930905006F004003930910006F00C0026E
:10224000930930006F004002638A75053309E90085
:1022500093B71702A305F60013050400EFF05FAD76
:1022600093090500E30605EE138509008320C102EA
:102270000324810283244102032901028329C1012D
:10228000032A8101832A4101032B0101832BC10011
:10229000032C810013010103678000009386050071
:1022A00093050C006FF05FF8930930006FF0DFFBCF
:1022B00000000000130101FB2326110423248104E4
:1022C0002322910423202105232E3103232C4103B3
:1022D000232A510313040500B717010023AE07F8A2
:1022E000EFF09F93137515009307200063160512F6
:1022F000930500001305C100EFF01FC793071000FE
:1023000093040000630EF5121307300093071000CA
:102310006304E51093076000631005109306400204
:102320001306D000938504001305C100EFF09F8FC2
:10233000930710006312050E034561011315850014
:10234000834751013365F50063160500130531021B
:10235000EFF09F978349F100B389A9028347E10019
:1023600093978700834AD100B3EA5701B3849A0058
:1023700023269400034AC1002301440103491101AB
:1023800013198900834701013369F90023122401DD
:102390000345310113158500834721013365F5009D
:1023A000631605001305F101EFF01F921359490060
:1023B000B3075541B3873741B3872741B3D74703A5
:1023C000938627002324D40037F7FFFF1307A700C5
:1023D000B387E70037F700001307E7FF6364F70AE6
:1023E000B7070100938767FF63E4D70C93072000CA
:1023F0002300F400B38734012328F400B3842401BC
:1024000033853401232AA400A3000400B717010078
:1024100023AE87F893070000138507008320C104CB
:102420000324810483244104032901048329C10373
:10243000032A8103832A41031301010567800000F9
:10244000930600011306E01B930500001305C1006D
:10245000EFF04FFD93071000E31005FC0347010167
:1024600093076000E30A07FA13054101EFF0DF85E7
:1024700093040500930505001305C100EFF0DFAEDE
:102480006FF09FE8B7070100938767FF63FED700EF
:10249000930730002300F4001305B102EFF0DF8250
:1024A0002328A4006FF09FF5930760006FF0DFF61C
:1024B000930730002300F4006FF01FFE00000000BF
:1024C000130101FB232611042324810423229104F8
:1024D000B717010003A4C7F9930450006300040672
:1024E00013060500A3000400930701022328F1024C
:1024F000930501001305C102EFF05FBB93040500D3
:10250000631E050283470100638607048347B10009
:1025100093F707016394070413050100EFF05FB41C
:102520002320A4021305C101EFF00FFA232EA4000B
:10253000232C040093071000A300F400138504006B
:102540008320C10403248104832441041301010571
:1025500067800000930430006FF05FFE930430004A
:102560006FF0DFFD00000000130101FE232E1100BB
:10257000232C8100232A91002328210123263101C5
:10258000232441012322510123206101B7170100B7
:1025900003A4C7F923200600630A04129309050067
:1025A000130A06008347140093F717001305400031
:1025B0006386070E0329C401832784013309F94088
:1025C00063F425011389050063060910130B10003D
:1025D000930A00206F00800703254402EFF04FFEAE
:1025E000637EAB082322A40203254402EFF0CFF060
:1025F000630C0508B384A4002324940203268401F9
:102600001376F61FB384CA406374990093040900DB
:10261000938604008325840213850900EFF08FE080
:10262000631A050683278401B3879700232CF400DF
:102630003309994083270A00B38797002320FA00C3
:1026400063840900B3899900630E09068327840116
:1026500013F7F71FE31407FA834424009384F4FF6D
:1026600013D59700B3F4A40093F4F40FE39E04F69B
:10267000E39407F6032504026FF09FF6A30004001D
:10268000130510006F008001A30004001305100063
:102690006F00C000A3000400130510008320C101D7
:1026A0000324810183244101032901018329C100FD
:1026B000032A8100832A4100032B01001301010238
:1026C00067800000130500006FF05FFD13055000E8
:1026D0006FF0DFFC130500006FF05FFC00000000EE
:1026E000B717010083A7C7F963840706130101FC2C
:1026F000232E1102232C81021386050013040500EA
:10270000930741022322F50093054100EFF01F9A41
:102710006318050283474100638007028347F10085
:1027200093F7070113053000638C07001305410080
:10273000EFF01F932324A40013050400EFF04FDFF4
:102740008320C10303248103130101046780000077
:10275000130550006780000000000000B71701005B
:1027600083A7C7F9638A071C130101FB2326110401
:10277000232481042322910423202105232E3103C5
:102780001389050013040500930741022322F50075
:1027900013053000638805009304500E9309E0028E
:1027A0006F00C00113050400EFF08FD86F00001612
:1027B00013050400EFF04FEE631E050683250401A8
:1027C00063800518035604001376F6009306000292
:1027D0001316560013054100EFF0CFC4631A050429
:1027E0008347410063840716E38497FCE38237FD47
:1027F0008347F10093F78700E39C07FA13079900DA
:1028000083270401930407006384070E8347410074
:10281000930600026380D7069306410093041901D2
:10282000130650001305500E930500026F0080033D
:10283000130510002328040093073000630AF510E5
:102840006316050C930499006F00800A13071700A4
:10285000A30FF7FE630097029386160083C7060056
:102860006388B700E394C7FE930705006FF01FFE6F
:10287000930407008347C10013070002638CE7023B
:102880001307E0022380E40093862400A380F40071
:102890008347D100130700026388E708938634005A
:1028A0002381F4008347E1006384E708A381F400F7
:1028B000938444008347F1002304F90013050102C7
:1028C000EFF08FC02320A9008347D10193978700A1
:1028D0000347C101B3E7E7002312F9008347B101C1
:1028E000939787000347A101B3E7E7002313F9009B
:1028F0002380040013050400EFF00FDA9307D5FFDF
:10290000B337F000B307F0403375F5008320C104FE
:102910000324810483244104032901048329C1037E
:102920001301010567800000938406006FF09FF893
:10293000938406006FF01FF81305500067800000B5
:1029400093049900E30605FA6FF0DFEE23280400F4
:10295000930499006FF0DFF9000000006340050662
:1029600063C6050613860500930505001305F0FFF1
:10297000630C060293061000637AB6006358C00029
:102980001316160093961600E36AB6FE13050000B0
:1029900063E6C500B385C5403365D50093D6160000
:1029A00013561600E39606FE67800000938200002F
:1029B000EFF05FFB13850500678002003305A04040
:1029C00063D80500B305B0406FF0DFF9B305B04040
:1029D00093820000EFF01FF93305A04067800200EA
:1029E0009382000063CA0500634C0500EFF09FF777
:1029F0001385050067800200B305B040E35805FE6B
:102A00003305A040EFF01FF63305B04067800200A9
:102A100000000000130605001305000093F61500E2
:102A2000638406003305C50093D515001316160000
:102A3000E39605FE6780000000000000130101FC22
:102A4000130300002326B1016F00C000130101FC35
:102A5000130300FF2328A101232A9101232C8101C4
:102A6000232E71016F00C000130101FC130300FE4F
:102A7000232061032322510323244103232631030E
:102A800023282103232A9102232C8102232E1102C1
:102A90003301614067800200130101FF23202101FF
:102AA0002322910023248100232611006780020045
:102AB000832DC10013010101032D0100832C41006E
:102AC000032C8100832BC10013010101032B0100A2
:102AD000832A4100032A81008329C10013010101D7
:102AE0000329010083244100032481008320C100C5
:102AF0001301010167800000B3C7A50093F73700F9
:102B00003307C500639607009307300063E4C702EC
:102B100093070500636CE5006780000083C605002D
:102B20009387170093851500A38FD7FEE3E8E7FE90
:102B300067800000937735006392070893070500CC
:102B40009376C7FF138606FE63F6C70883A30500C6
:102B500083A2450083AF850003AFC50083AE0501A6
:102B600003AE450103A3850183A8C50193854502F2
:102B70009387470203A8C5FF23AE77FC23A057FE27
:102B800023A2F7FF23A4E7FF23A6D7FF23A8C7FFAD
:102B900023AA67FE23AC17FF23AE07FF6FF0DFFA0F
:102BA00083C605009387170093851500A38FD7FE72
:102BB00093F63700E39606FE6FF09FF89307050043
:102BC0006FF01FFF03A6050093874700938545001C
:102BD00023AEC7FEE3E8D7FEE3EAE7F46780000030
:102BE000000000001308F00013070500637EC80210
:102BF0009377F7006390070A63920508937606FFC0
:102C00001376F600B386E6002320B7002322B70030
:102C10002324B7002326B70013070701E366D7FE76
:102C20006314060067800000B306C8409396260030
:102C300097020000B38656006780C6002307B700DE
:102C4000A306B7002306B700A305B7002305B70006
:102C5000A304B7002304B700A303B7002303B700FE
:102C6000A302B7002302B700A301B7002301B700F6
:102C7000A300B7002300B7006780000093F5F50FAD
:102C800093968500B3E5D50093960501B3E5D5008D
:102C90006FF0DFF69396270097020000B386560088
:102CA00093820000E78006FA93800200938707FF73
:102CB0003307F7403306F600E378C8F66FF0DFF32A
:102CC000130101F7232E1106232C8106232A9106D6
:102CD0002320E1082322F1082324010923261109D6
:102CE000635206029307B0082320F5001305F0FF96
:102CF0008320C107032481078324410713010109AD
:102D00006780000093078020231AF1002324B1007C
:102D1000232CB1001304060093070000630406008F
:102D20009307F6FF138606002328F100232EF100F7
:102D3000930601089307F0FF93058100231BF10020
:102D4000930405002322D100EF0000199307F0FF40
:102D50006356F5009307B00823A0F400E30A04F8D3
:102D600083278100238007006FF09FF8130101F68D
:102D7000232AF108232A91062326D1082328E108D3
:102D8000232C0109232E110997E70000938707B52B
:102D9000232E1106232C810683A4070063D205028B
:102DA0009307B00823A0F4001305F0FF8320C107A8
:102DB00003248107832441071301010A678000006F
:102DC00093078020231AF1002324A100232CA100C3
:102DD00093070000638405009387F5FF2328F10023
:102DE000232EF1009306C1089307F0FF138405001A
:102DF0001385040093058100231BF1002322D100D9
:102E000097000000E780800D9307F0FF6356F50000
:102E10009307B00823A0F400E30A04F88327810095
:102E2000238007006FF09FF8000000009307050063
:102E30009387170003C7F7FFE31C07FE3385A740FE
:102E40001305F5FF6780000000000000630A06021A
:102E5000130715003305C5008347F7FF83C6050038
:102E60006386D7003385D74067800000E30CA7FE58
:102E700013071700E38807FE938515006FF0DFFD49
:102E80001305000067800000000000001307050024
:102E900063140600678000009385150083C6F5FF64
:102EA000930717001308F6FFA38FD7FE6398060059
:102EB0003307C700639AE7006780000013870700A5
:102EC000130608006FF0DFFC93871700A38F07FE3F
:102ED0006FF05FFE00000000130101E32326111CC8
:102EE0002322911C2320211D232E311B232A511B19
:102EF0009389050093040600938A06002324811C0D
:102F0000232C411B2328611B2326711B2324811B97
:102F10002322911B2320A11B232EB1191309050085
:102F200097400000E7804043832705001385070092
:102F30002324F102EFF09FEF83D7C900232AA100D9
:102F40002328010C232A010C232C010C232E010C15
:102F500093F707086380070483A70901639C0702AE
:102F60009305000413050900EF40804323A0A90046
:102F700023A8A900631C05009307C0002320F900C3
:102F80009307F0FF232CF1006F00405893070004D3
:102F900023AAF9009308C10E2322110D2326010C48
:102FA0002324010C130A0000232A01022328010212
:102FB000232401002322010223260102232C0100E5
:102FC000138404001307500283470400638407003E
:102FD0006392E70C330B9440630A0B048327C10C04
:102FE00023A0980023A26801B38767012326F10C70
:102FF0008327810C1307700093888800938717003C
:103000002324F10C635EF7001306410C938509003D
:1030100013050900EF5090346314054E9308C10E58
:1030200083278101B3876701232CF10083470400C4
:10303000639407006F10905E930714002328F1003B
:10304000A303010A130BF0FF232E01001304000059
:10305000930B90009306A0051306A002832701019D
:1030600003CD0700938717002328F10093070DFE77
:1030700063F4F6006F10402A17C700001307870A91
:1030800093972700B387E70083A70700B387E7007C
:1030900067800700130414006FF01FF397D7000038
:1030A0009387C7CF232AF102937704026394070022
:1030B0006F104008938A7A0093FA8AFF03AC0A00E3
:1030C00083AC4A0093878A002326F100937714008B
:1030D000638E0700B3679C01638A070093070003B0
:1030E0002304F10AA304A10B136424001374F4BF96
:1030F000930720006F00904413050900232211015B
:1031000097400000E780402583274500138507008E
:103110002326F102EFF09FD12322A102130509001B
:1031200097400000E78040238327850083284100E3
:103130002324F10083274102E38E07F083278100D7
:10314000E38A07F083C70700E38607F013640440AF
:103150006FF05FF08347710AE39E07EE930700026A
:10316000A303F10A6FF01FEF136414006FF09FEEDA
:1031700083A70A00938A4A00232EF100E3DC07ECC0
:10318000B307F040232EF100136444006FF09FEC6E
:103190009307B0026FF0DFFC0327010183270101D1
:1031A000034D0700938717006310CD0403AB0A009B
:1031B00013874A0063540B00130BF0FF930A0700B8
:1031C0002328F1006FF01FE99305A0003303BB0231
:1031D0009387170003CDF7FF330BE30013070DFDB3
:1031E000E3F4EBFE6FF05FE8130B00006FF01FFFDE
:1031F000136404086FF01FE683270101232E0100EA
:103200000327C1019305A000130D0DFD3307B7027D
:10321000938717003307ED0003CDF7FF232EE1005E
:1032200013070DFDE3FEEBFC6FF01FE41364840055
:103230006FF05FE28327010103C707009307800651
:10324000631CF70083270101136404209387170090
:103250002328F1006FF01FE0136404046FF09FDF78
:103260008327010103C707009307C006631CF7000B
:1032700083270101938717002328F10013640402B8
:103280006FF05FDD136404016FF0DFDC93874A00A9
:103290002326F10083A70A00A303010A2306F112E3
:1032A00023220100130B1000930D0000130C0000EB
:1032B000930B0000930C00009304C1126F00903830
:1032C0001364040193770402638E0704938A7A00DF
:1032D00093FA8AFF03AC0A0083AC4A0093878A0002
:1032E0002326F10063DE0C00330C8041B3378001EC
:1032F000B30C9041B38CFC409307D002A303F10AB6
:103300009307F0FFE316FB66E3980C6E93079000BB
:10331000E3E4876F130C0C03A30781199304F118DE
:103320006F00106B93874A002326F1009377040106
:103330006388070003AC0A00935CFC416FF09FFABE
:103340009377040403AC0A0063880700131C0C0184
:10335000135C0C416FF05FFE93770420E38E07FC53
:10336000131C8C01135C8C416FF01FFD937784005C
:103370006382070C93874A002326F10083A70A0083
:1033800003A6070083A6470003A7870083A7C700FB
:103390002328C10C232AD10C232CE10C232EF10C61
:1033A0001305010D23221101EF30D0732326A10A4A
:1033B00093072000832841006314F50C8327010D37
:1033C00093050108130501092328F1088327410DFE
:1033D0002320010823220108232AF1088327810DD5
:1033E0002324010823260108232CF1088327C10D7B
:1033F000232EF108EF80D05F83284100635605003B
:103400009307D002A303F10A9307700497D4000036
:103410009384C49663C6A70197D400009384C4958F
:103420001374F4F723220100130B3000930D0000F6
:103430006F00105B938A7A0093FA8AFF83A50A00D3
:1034400003A64A0093878A0013050109232211016C
:103450002326F100EFB0406F832701098328410044
:103460002328F10C83274109232AF10C83278109A2
:10347000232CF10C8327C109232EF10C6FF05FF28E
:10348000930710006310F5029307700497D40000AF
:103490009384448FE3C6A7F997D400009384448EA5
:1034A0006FF01FF8937BFDFD930710046390FB0AF8
:1034B000930700032304F10A1307100693078005FE
:1034C0006314ED0093078007A304F10A9307300605
:1034D0001364240063D6674F93051B00130509008E
:1034E00023221101EF30D06B9304050083284100A3
:1034F000631E054C83D7C90093E707042396F900A0
:1035000083D7C90093F70704E39C07A68320C11C57
:103510000324811C032581018324411C0329011CF0
:103520008329C11B032A811B832A411B032B011BF7
:10353000832BC11A032C811A832C411A032D011AE3
:10354000832DC1191301011D678000009307F0FF4F
:103550006302FB4893077004232201006394FB007D
:1035600063000B48832AC10D936704102320F102E6
:10357000232C0102032E010D832D410D832C810D7F
:1035800063DA0A00B7070080B3CA57019307D00275
:10359000232CF102930710046398FB4813050109DB
:1035A000232411052328C109232C9109232AB109B9
:1035B000232E5109EFB0C07B1306C10AEF504039EA
:1035C000138605009305050013050109EFB0C057E8
:1035D0008327010913060106930501072328F10635
:1035E000832741091305010823200106232AF10638
:1035F000832781092322010623240106232CF106B7
:103600008327C109232EF106B707FC3F2326F106C5
:10361000EF805054032801080326410883268108BF
:10362000832CC1089305010813050109232801090A
:1036300023220105232AC1082320C104232CD108F9
:10364000232ED102232E91092320010823220108D1
:103650002324010823260108EF8050168326C10386
:10366000032601040328410483288104631605000E
:10367000130710002326E10A1307100697CA00005B
:10368000938ACA716316ED0097CA0000938ACA6FC5
:10369000130EFBFF938D0400B70703409305010849
:1036A0002322C1081305010913060107232411056C
:1036B0002322C10523200109232EF1062324D1084A
:1036C0002326910923280106232A0106232C01061B
:1036D000EF8050480326010983264109130501099B
:1036E0002320C104232ED102EFB04017930505001B
:1036F000130A050013050109832C8109032CC10954
:10370000EFB0402C83270109032601048326C1035F
:103710002320F106832741092328C10693050107C9
:103720002322F106832781091306010613050108E8
:103730002324F1068327C109232C9107232E810717
:103740002326F106232AD106EF901045B3854A01BE
:1037500083C50500032E4104032CC108938D1D0071
:1037600083220108832F4108032F8108232EC103E0
:10377000A38FBDFE9307F0FF930C0C0083288104F8
:10378000630CFE06130EFEFF9305010813050109E5
:10379000232EE105232CF105232A510423281105AA
:1037A0002326C1052328510823245104232AF10983
:1037B0002322F105232CE1092320E105232E810991
:1037C00023200108232201082324010823260108BD
:1037D000EF80C07E83260104032641040328810470
:1037E000032EC1048328010583224105832F81050F
:1037F000032FC105E31205EAB70CFE3F930501084C
:1038000013050109232011052328510823265104FB
:10381000232AF1092324F105232CE1092322E105C0
:10382000232E8109232001082322010823240108D3
:1038300023269109EF809005832801046346A004A4
:103840008322C104832F8104032F410493050108BF
:103850001305010923285108232AF109232CE10922
:10386000232E810923200108232201082324010893
:1038700023269109EF80807483280104631C0518B6
:10388000137A1A0063080A1803C6FA00232EB10B34
:10389000930500038326C10B9387F6FF232EF10ABD
:1038A00083C7F6FF6384C714130690036394C71499
:1038B00083C7AA00A38FF6FE138A0D0013077004B6
:1038C000330A9A40832CC10A6394EB2A1307D0FF72
:1038D00063C4EC0063509B33130DEDFF1387FCFFB3
:1038E0002326E10A1376FDFD130510049376FD0FE0
:1038F000930500006318A6009386F60093F6F60F72
:1039000093051000230AD10A9307B00263580700F9
:1039100013071000330797419307D002A30AF10A57
:103920009307900063DAE7289307310C938507002B
:10393000130590001308A000B36607031386F7FF72
:103940003347070393860603A38FD7FE6348E52416
:10395000130707039387E7FFA30FE6FE9306610BA8
:1039600063E2B7249307410BB387F6402328F102A3
:10397000338B47019307100063C647019377140008
:103980006386070083274101330BFB001374F4BFE8
:10399000936704102320F102130C0000930B000026
:1039A000930C000083278103638607001307D0026E
:1039B000A303E10A03240102930D00006F00804875
:1039C000232201009304C1126FF0DFB92322A1006A
:1039D0006FF05FB923220100130B60006FF09FB8F6
:1039E00023226101130B10006FF0DFB7A38FB6FE27
:1039F0006FF05FEA9387170093F7F70F6FF09FEB75
:103A0000130A1A00A30FEAFEB3074C41E3DA07FEDC
:103A10006FF0DFEA8327C103138A0D001307000349
:103A2000338CFD006FF05FFE93076004638EFB0034
:103A300093075004130C1B006384FB00130C0B0052
:103A4000130620006F00C000130C0B00130630009B
:103A50009307010B1308C10B1307C10A93060C004F
:103A60009305010913050900232011052328C10925
:103A7000232EC103232AB109232C9109232E510996
:103A800097300000E78080B9930770049304050025
:103A9000032EC103832801046396FB00937714006F
:103AA0006388070A93076004338A84016392FB06E4
:103AB00003C70400930700036318F7049305010884
:103AC00013050109232011052328C109232EC10351
:103AD000232AB109232C9109232E510923200108FF
:103AE000232201082324010823260108EF80004D2A
:103AF000032EC10383280104630805009307100007
:103B0000338C87412326810B8327C10A330AFA00AD
:103B10009305010813050109232E11032328C10968
:103B2000232AB109232C9109232E510923200108AE
:103B3000232201082324010823260108EF800048DE
:103B40008328C10313070003631E0500232E410BC6
:103B5000032AC10B6FF09FD693861700232ED10A3C
:103B60002380E7008327C10BE3E847FF6FF05FFE88
:103B700013076004E394EBD66352900763160B00BF
:103B8000137714006302070C832741013387FC007D
:103B9000330BEB00130D60066F004009930706001E
:103BA0006FF05FD99387170003C7F7FF938616005E
:103BB000A38FE6FE6FF0DFDA9307610B63980500D1
:103BC00093070003230BF10A9307710B13070703F5
:103BD000938617002380E7006FF0DFD863160B0091
:103BE0001377140063060706832741011387170024
:103BF0006FF01FFA63C04C0313771400138B0C0093
:103C00006306070083274101338BFC00130D700608
:103C10006F00C00183274101130D7006330BFA00BA
:103C20006346900133039B41130B1300937B0440C5
:103C3000130C0000E3880BD6930B0000E35490D7DD
:103C40009306F00F6F008003138B0C006FF09FF44E
:103C5000130D6006130B10006FF05FFD63569703A2
:103C600083278100B38CEC4003C717006308070269
:103C700093871700938B1B002324F1008327810077
:103C800003C70700E31CD7FC8327410233878B015E
:103C90003307F702330B67016FF0DFD0130C1C0002
:103CA0006FF0DFFD13874A002326E100137704023B
:103CB00083A70A00630007020327810123A0E7000E
:103CC0001357F74123A2E700832AC100832401018F
:103CD0006FF00FAF1377040163080700032781011A
:103CE00023A0E7006FF05FFE13770404630807006A
:103CF000035781012390E7006FF01FFD1374042028
:103D0000E30E04FC034781012380E7006FF0DFFB33
:103D1000136404019377040263880704938A7A008A
:103D200093FA8AFF03AC0A0083AC4A0093878A00A7
:103D30002326F1001374F4BF93070000A303010AC4
:103D40001307F0FF630CEB4213070400B3669C01FA
:103D50001374F4F76394064263020B5A13071000BE
:103D60006392E7426FF00FDB93874A002326F1004E
:103D7000937704016386070003AC0A006F0000011B
:103D8000937704046388070003DC0A00930C0000A7
:103D90006FF05FFA93770420E38007FE03CC0A00FC
:103DA0006FF0DFFE93874A002326F100B787FFFFFD
:103DB00093C707832314F10A97C700009387C7FCB2
:103DC000232AF10203AC0A00930C000013642400C0
:103DD00093072000130D80076FF05FF693874A006A
:103DE0002326F100A303010A9307F0FF2320110308
:103DF00083A40A006306FB0213060B009305000070
:103E000013850400EF3050452322A10083280102CE
:103E1000630E05E0330B9540232201006FF00FE1A4
:103E200013850400EFF08F8083280102130B050037
:103E300023220100930D0000130C0000930B0000DF
:103E4000930C00002320B10363D46D012320610390
:103E50000347710A6308070083270102938717004D
:103E60002320F10293772400232CF10263880700BA
:103E700083270102938727002320F102937A4408C5
:103E800063980A068327C10103270102338EE740A6
:103E90006350C007130F000197BE0000938E4E3F82
:103EA000930F70008326810C23A0D8010327C10C37
:103EB0009386160013868800634ACF473307EE00C7
:103EC00023A2C8012326E10C2324D10C1307700080
:103ED00093080600635ED7001306410C9385090022
:103EE00013050900EF409047E314056C9308C10ED9
:103EF0000347710A630807041307710A23A0E80047
:103F00001307100023A2E8000327C10C93067000DA
:103F100093888800130717002326E10C0327810CE0
:103F2000130717002324E10C63DEE6001306410C9F
:103F30009385090013050900EF405042E31A056616
:103F40009308C10E83278103638807041307810A3E
:103F500023A0E8001307200023A2E8000327C10CD8
:103F60009306700093888800130727002326E10C2E
:103F70000327810C130717002324E10C63DEE600FE
:103F80001306410C9385090013050900EF40103D0D
:103F9000E31005629308C10E130700086398EA0650
:103FA0008327C10103270102B38AE740635050070A
:103FB000130E000197B700009387872E930E7000B1
:103FC0008326810C23A0F8000327C10C93861600DA
:103FD0001386880063485E3B3387EA0023A25801BA
:103FE0002326E10C2324D10C13077000930806004C
:103FF000635ED7001306410C938509001305090081
:10400000EF40D035E316055A9308C10EB38A6D41CF
:10401000635050071308000197BD0000938D4D2891
:10402000130E70000327810C23A0B8018326C10C56
:104030001307170013868800634E583923A25801CE
:10404000B38ADA002326510D2324E10C9306700075
:104050009308060063DEE6001306410C9385090011
:1040600013050900EF40902FE31405549308C10E87
:1040700013770410832DC10C6312073A3303BB017D
:1040800023A0980023A268012326610C8327810CBA
:104090001307700093888800938717002324F10C7E
:1040A0006352F74C1306410C938509001305090070
:1040B000EF40D02AE31E054E9308C10E6F00804AE0
:1040C000136404019377040263820702938A7A00DF
:1040D00093FA8AFF03AC0A0083AC4A0093878A00F4
:1040E0002326F100930710006FF05FC593874A0005
:1040F0002326F100937704016386070003AC0A00CE
:104100006F000001937704046388070003DC0A0052
:10411000930C00006FF01FFD93770420E38007FEEF
:1041200003CC0A006FF0DFFE97C700009387C7C576
:104130006FE05FF793874A002326F100937704012D
:104140006386070003AC0A006F0000019377040444
:104150006388070003DC0A00930C00006FE01FF780
:1041600093770420E38007FE03CC0A006FF0DFFEA4
:1041700013070400930710006FF05FBD13071000D2
:104180006384E79813072000638EE71293070119F1
:104190009396DC0113777C00135C3C001307070344
:1041A00033EC860193DC3C00A38FE7FEB3669C01F1
:1041B0009384F7FF639E060293761400638A0600D9
:1041C000930600036306D700A38FD4FE9384E7FF12
:1041D00093070119930D0B0023220100338B9740A5
:1041E000130C0000930B0000930C00006FF09FC5B0
:1041F000938704006FF0DFF9130A0000930D011993
:10420000937A0440930B90001306A00093060000DD
:1042100013050C0093850C0023221101EF60904CD4
:1042200013050503A38FADFE9384FDFF130A1A0047
:1042300083284100638E0A048327810083C7070017
:104240006318FA049307F00F6304FA0463940C00F4
:1042500063F08B05832741028325C10223221101CC
:10426000B384F4401386070013850400EFE01FC2F7
:1042700083278100130A00008328410083C71700A9
:104280006388070083278100938717002324F100A8
:1042900013050C0093850C001306A0009306000084
:1042A00023221101EF609000938C0500B3E5A50077
:1042B000130C050083284100E38C05F0938D040066
:1042C0006FF09FF493040119032741039377FC00D7
:1042D0009384F4FFB307F70083C70700135C4C0017
:1042E0002380F4009397CC0133EC870193DC4C00DE
:1042F000B3679C01E39A07FC6FF09FED93040119EB
:10430000E39807EC13771700E30407EC9307000327
:10431000A307F1186FF08F80E3020D302306A1137D
:10432000A303010A232651016FE09FF7130707013A
:1043300023A2E8012326E10C2324D10C63DEDF0253
:104340001306410C93850900130509002324F10588
:104350002322D1052320E105232EC103EF401000C5
:10436000E3180524832F8104832E4104032F0104C5
:10437000032EC1031306C10E130E0EFF9308060091
:104380006FF05FB21307070123A2C8012326E10CD7
:104390002324D10C63DADE021306410C9385090055
:1043A000130509002320D105232EF102232CC1037C
:1043B000EF40C07AE31E051E832E01048327C1034C
:1043C000032E81031306C10E938A0AFF9308060089
:1043D0006FF01FBF9386060123A208012326D10C8C
:1043E0002324E10C6356EE021306410C9385090069
:1043F00013050900232EC103232C0103EF4000768F
:10440000E318051A032EC103032881031306C10E06
:10441000938A0AFF930806006FF0DFC01307500667
:104420006354A7730327010D9305010813050109C0
:104430002328E1080327410D232C11032320010821
:10444000232AE1080327810D2322010823240108E0
:10445000232CE1080327C10D23260108232EE108A0
:10446000EF70D035832881036314051897C70000C7
:104470009387079423A0F8009307100023A2F80065
:104480008327810C938D1D002326B10D9387170080
:104490002324F10C1307700093888800635EF700F3
:1044A0001306410C9385090013050900EF40006BCA
:1044B000E31005109308C10E8327C10A63C64701A4
:1044C000937714006380070A832781020327410141
:1044D0009388880023ACF8FE8327410123AEF8FEC1
:1044E0008327C10CB387E7002326F10C8327810CB7
:1044F00013077000938717002324F10C635EF70005
:104500001306410C9385090013050900EF4000656F
:10451000E310050A9308C10E9304FAFF6354900454
:10452000930B000197BA0000938A8AD7130C70008E
:104530008327810C23A058010327C10C9387170000
:104540009386880063CA9B0623A29800B384E40084
:104550002326910C2324F10C130770009388060086
:10456000E342F7B4137444006314047E032DC101C5
:10457000832701026354FD00138D07008327810107
:10458000B387A701232CF1008327C10C638C07009C
:104590001306410C9385090013050900EF40005CE8
:1045A000E3180500832741002324010CE39E070440
:1045B0009308C10E6FF04FF11307070123A2780192
:1045C0002326E10C2324F10C635EFC001306410C4E
:1045D0009385090013050900EF404058631A057CD4
:1045E0009306C10E938404FF938806006FF05FF476
:1045F0000327C10A6346E01697B700009387477BFD
:1046000023A0F8009307100023A2F8008327810C51
:10461000938D1D002326B10D938717002324F10CE1
:104620001307700093888800635EF7001306410C3F
:104630009385090013050900EF404052631A05767F
:104640009308C10E8327C10A6398070063160A0006
:1046500093771400E38807F0832781020327410141
:104660009388880023ACF8FE8327410123AEF8FE2F
:104670008327C10CB387E7002326F10C8327810C25
:1046800013077000938717002324F10C635EF70073
:104690001306410C9385090013050900EF40004CF7
:1046A000631805709308C10E832AC10A63D20A06F3
:1046B000B30A504113870800130C000197BB000098
:1046C000938B0BBE130D70008327810C2320770181
:1046D0008326C10C938717009388880063465C0586
:1046E00023225701B38ADA002326510D2324F10C2B
:1046F00013077000635EF7001306410C93850900F1
:1047000013050900EF4080456314056A9308C10E44
:104710008327C10C23A0980023A24801B387470137
:104720002326F10C6FF09F969386060123228701C2
:104730002326D10C2324F10C635EFD001306410CEB
:104740009385090013050900EF4040416312056697
:104750009308C10E938A0AFF138708006FF0DFF6F3
:10476000938A0C0063549A01930A0A00635250051D
:104770000327810CB38DBA0123A0980013071700FB
:1047800023A258012326B10D2324E10C93067000C7
:104790009388880063DEE6001306410C93850900C8
:1047A00013050900EF40803B631405609308C10EB8
:1047B00063D40A00930A0000B38A5C416350500737
:1047C000930D000117BD0000130D8DAD130B70008C
:1047D0000327810C23A0A8018326C10C130717000F
:1047E0001386880063C25D1B23A25801B38ADA00D6
:1047F0002326510D2324E10C930670009308060034
:1048000063DEE6001306410C9385090013050900D9
:10481000EF40C034631E05589308C10E93770440DF
:10482000B38A940163840702130D7000338B440133
:1048300097BD0000938DCDA663940B1863140C18DC
:10484000B387440163F45701938A07008327C10AA1
:1048500063C6470193771400638A070483278102A4
:10486000032741019388880023ACF8FE8327410188
:1048700023AEF8FE8327C10CB387E7002326F10C93
:104880008327810C13077000938717002324F10CF2
:10489000635EF7001306410C9385090013050900B8
:1048A000EF40C02B631605509308C10EB38444013A
:1048B000B38754418324C10AB3049A4063D4970058
:1048C00093840700635490048327C10C23A05801EC
:1048D00023A29800B387F4002326F10C8327810CD0
:1048E0001307700093888800938717002324F10C26
:1048F000635EF7001306410C938509001305090058
:10490000EF40C0256316054A9308C10E9387040043
:1049100063D40400930700008324C10AB3049A40BF
:10492000B384F440E35090C4930B000197BA0000A5
:10493000938A0A97130C70008327810C23A05801D7
:104940000327C10C9387170093868800E3DE9BBE84
:104950001307070123A278012326E10C2324F10C7D
:10496000635EFC001306410C9385090013050900E2
:10497000EF40C01E631E05429306C10E938404FFE0
:10498000938806006FF05FFB9386060123A2B801AF
:104990002326D10C2324E10C635EEB001306410CAB
:1049A0009385090013050900EF40401B6312054081
:1049B0001306C10E938A0AFF930806006FF05FE1A9
:1049C00063020C0E130CFCFF8327C1020327410274
:1049D0009388880023ACF8FE8327410223AEF8FEBB
:1049E0008327C10CB387E7002326F10C8327810CB2
:1049F000938717002324F10C635EFD001306410C1E
:104A00009385090013050900EF4040156312053A2C
:104A10009308C10E8327810033075B4183C70700DA
:104A20006354F700930707006356F0040327C10C93
:104A300023A0580123A2F8003387E7002326E10CC6
:104A40000327810C93888800130717002324E10CA7
:104A50006352ED021306410C93850900130509000A
:104A6000232CF102EF40800F631405348327810368
:104A70009308C10E1387070063D4070013070000D3
:104A8000832781001308000183C70700B387E7402D
:104A90006346F0068327810083C70700B38AFA00C4
:104AA0006FF09FD983278100938BFBFF9387F7FFDC
:104AB0002324F1006FF05FF19386060123A2080121
:104AC0002326D10C2324E10C6356ED021306410C7E
:104AD0009385090013050900232E0103232CF102FD
:104AE000EF40C0076316052C0328C1038327810309
:104AF0001306C10E938707FF930806000327810C56
:104B000023A0B8018326C10C130717001386880061
:104B1000E344F8FA23A2F800B387D7002326F10C68
:104B20002324E10C93080600E356EDF61306410C2E
:104B30009385090013050900EF404002631A05261A
:104B40009308C10E6FF01FF58327810C1307100027
:104B500023A09800938D1D0093871700938B8800E6
:104B600063464701937614006388061C1307100000
:104B700023A2E8002326B10D2324F10C13077000B3
:104B8000635EF7001306410C9385090013050900C5
:104B9000EF30D07C631E0520930BC10E832781026A
:104BA00003274101938B8B0023ACFBFE832741013C
:104BB00023AEFBFE8327C10CB387E7002326F10C4D
:104BC0008327810C13077000938717002324F10CAF
:104BD000635EF7001306410C938509001305090075
:104BE000EF30D0776316051C930BC10E8327010DA0
:104BF00093050108130501092328F1088327410DB6
:104C0000930AFAFF23200108232AF1088327810D44
:104C10002322010823240108232CF1088327C10D36
:104C200023260108232EF108EF704039630605089A
:104C30008327C10C0327810C938414009387F7FF0B
:104C4000B38747011307170023A09B0023A25B0132
:104C50002326F10C2324E10C93077000938B8B0027
:104C600063DEE7001306410C938509001305090074
:104C7000EF30D06E631E0512930BC10E9307410BEC
:104C800023A0FB00832701030327010393888B00E4
:104C900023A2FB008327C10CB387E7002326F10C76
:104CA0008327810C13077000938717002324F10CCE
:104CB000E35AF78A6FF00FBFE35250FD130C000167
:104CC00097A400009384C45D130D70000327810C2A
:104CD00023A09B008327C10C1307170093868B002A
:104CE00063405C03B387FA0023A25B012326F10C27
:104CF0002324E10C93077000938B06006FF05FF69E
:104D00009387070123A28B012326F10C2324E10CB6
:104D1000635EED001306410C93850900130509003D
:104D2000EF30D063631605089306C10E938A0AFF1D
:104D3000938B06006FF09FF923A2E8002326B10DA4
:104D40002324F10C13077000E35AF7F26FF09FF180
:104D50008327C101032701023384E740E3588080A1
:104D6000930A000197A4000093848452930B70006F
:104D70008327810C23A098000327C10C9387170079
:104D800063C88A0423A288003304E4002326810C2C
:104D90002324F10C13077000635AF7FC1306410C2F
:104DA0009385090013050900EF30505B630005FC93
:104DB00083274100639407006FE08FF49385070019
:104DC0001305090097000000E780C01A6FE04FF359
:104DD0001307070123A258012326E10C2324F10C19
:104DE0009388880063DEFB001306410C938509005D
:104DF00013050900EF309056E31C05FA9308C10E25
:104E0000130404FF6FF0DFF683254100130509004A
:104E100097000000E78000166FF08FF98327C10C20
:104E2000639407006FE0CFED1306410C93850900F2
:104E300013050900EF3090526FE08FEC0000000086
:104E4000130101FD23248102232291022320210347
:104E5000232E31012326B100232611021309050058
:104E600097B9000093890950EF20904183A78900EA
:104E70008325C10083A44700B71700001384F7FE01
:104E800093F4C4FF3304B440330494001354C400B7
:104E90001304F4FF1314C4006358F402130509004B
:104EA00097300000E78040BE130500008320C10258
:104EB0000324810283244102032901028329C101C1
:104EC000130101036780000093050000130509002A
:104ED000EF30903383A78900B3879700E310F5FC88
:104EE000B305804013050900EF3010329307F0FF3F
:104EF0006312F5049305000013050900EF30D0306C
:104F000003A789009306F000B307E540E3D8F6F85D
:104F100097C600009386C69C83A6060093E71700F9
:104F20002322F7003305D54097C6000023A6A6BC70
:104F30006FF0DFF683A78900B384844093E4140004
:104F400023A2970097C70000938707BB83A707009A
:104F5000130509003384874097C7000023AE87B844
:104F600097300000E78040B2130510006FF01FF487
:104F700063800528130101FF23248100232291006F
:104F800013040500938405002326110097300000C8
:104F9000E78040AF83A5C4FF938684FF17B5000068
:104FA0001305453C93F7E5FF3386F60003274600DB
:104FB0000328850093F515001377C7FF631CC80607
:104FC000B387E7006390050203A784FFB386E6403A
:104FD00003A68600B387E70003A7C6002326E600E2
:104FE0002324C70013E7170023A2E60017B7000029
:104FF000232ED73617C700001307C78E03270700D5
:1050000063EEE70097C70000938747FA83A5070080
:105010001305040097000000E780C0E213050400B8
:10502000032481008320C100832441001301010176
:105030006F2050252322E600130800006396050226
:1050400083A584FF97B8000093884832B386B640A2
:10505000B387B70083A58600638C150B83A8C600B1
:1050600023A6150123A4B800B305E60083A54500D7
:1050700093F51500639C0502B387E70003278600BC
:10508000631C080897B500009385452E6316B70882
:1050900017B600002322D62E17B60000232CD62CDC
:1050A00023A6E60023A4E6001308100013E7170068
:1050B00023A2E6003387F6002320F700E31008F66A
:1050C0001307F01F6362F70693D7370013D6274004
:1050D000130710003317C7000326450093871700F6
:1050E000939737003367C700B307F50017B6000082
:1050F000232CE62603A70700138687FF23A6C600F6
:1051000023A4E60023A0D7002326D7006FF01FF1C9
:10511000130810006FF05FF50326C6002326C700B2
:105120002324E6006FF09FF813D697001307400082
:10513000636AC70413D767001307870313061700B2
:10514000131636003306C500930586FF03260600B6
:105150006396C50893071000135727403397E7005D
:10516000832745003367F70097B7000023AEE71E9B
:1051700023A6B60023A4C60023A4D5002326D60068
:105180006FF0DFE9130740016366C7001307B60538
:105190006FF0DFFA130740056368C70013D7C70035
:1051A0001307E7066FF09FF9130740156368C70000
:1051B00013D7F700130777076FF05FF89305405593
:1051C0001307E007E3ECC5F613D727011307C7075A
:1051D0006FF0DFF6032686006388C50003274600CC
:1051E0001377C7FFE3E8E7FE8325C6006FF05FF89B
:1051F00067800000000000009307450113052500AB
:10520000231F05FEE31CF5FE6780000093074501A0
:10521000130525000357E5FF93852500239FE5FE31
:10522000E398A7FE678000009307A50113052500FA
:10523000231F05FEE31CF5FE6780000013078501B0
:1052400093870500130525008356E5FF9387270004
:10525000239FD7FEE318A7FE239C0500678000006C
:1052600093074500938545001305A5019387270003
:105270009385250083D6E7FF03D7E5FF6398E60013
:10528000E316F5FE1305000067800000130510000B
:105290006364D7001305F0FF6780000093064500A4
:1052A000930700001305A5013786FFFF03D706000B
:1052B000937517006384050093E7170093F52700A3
:1052C0001357170063900502939717002390E60089
:1052D000939707019386260093D70701E318D5FC1F
:1052E000678000003367C7006FF01FFE93066501FB
:1052F0001307000083D726001396070113560641B3
:1053000063540600136717009397170093970701DC
:105310001376270093D707016310060213171700AF
:105320002391F600131707019386E6FF1357070131
:10533000E312D5FC6780000093E717006FF01FFEB3
:1053400093074500130700001305A50183D6070046
:105350009387270013D686003367C700239FE7FE95
:10536000139786001317070113570701E310F5FE83
:1053700067800000930765011307000083D62700AC
:105380009387E7FF139686003367C7002392E700F1
:1053900013D78600E314F5FE6780000093074500ED
:1053A000130785019387270083D60700239FD7FE25
:1053B000E31AF7FE231C05006780000093078501B0
:1053C0001307A501930645009387E7FF03D607005F
:1053D0001307E7FF2310C700E398F6FE231205002A
:1053E000678000009385850113076501930600001F
:1053F0008357270003D605001307E7FF9385E5FFD2
:10540000B387C700B387D7002391F50093D707016F
:1054100093F61700E31EE5FC678000009385850185
:10542000130765019306000083D705000356270084
:105430001307E7FF9385E5FFB387C740B387D740DE
:105440002391F50093D7070193F61700E31EE5FCBF
:1054500067800000130101FE370301009388850176
:10546000231D0100231E0100938545009306C10101
:105470001303F3FF03D708009386E6FF9388E8FF42
:10548000631C0702239F06FEE39615FF9307400067
:105490001307A00193054100B385F50083D50500EE
:1054A000B306F600938727002390B600E394E7FE47
:1054B00013010102678000003307A70203D826000A
:1054C000B3776700B387070113D807012391F6006C
:1054D0009357070103D70600B387E700B387070197
:1054E0002390F60093D70701239FF6FE6FF0DFF9B4
:1054F0008357250193C7F7FF13971701631C070014
:1055000093072501130525000357E5FF63180700DE
:10551000E39AA7FE13050000678000001305100042
:1055200067800000130101FF23248100232611005E
:105530001304050097000000E780C0FB631E050010
:10554000031524011355F5018320C10003248100B4
:105550001301010167800000130500006FF0DFFEFA
:1055600083172501130101FF232611002324810045
:10557000232291002320210163D807069307F0FF1F
:105580002390F50003572501B78700009387F7FFA5
:1055900033F7E7002391E500130905016316F706C9
:1055A0001384050093040500EFF09FF463020504E3
:1055B00093076400231204001385C4FF1309E9FF55
:1055C0000357290093872700239FE7FEE318A9FECE
:1055D0008320C100032481008324410003290100AA
:1055E0001301010167800000239005006FF09FF90F
:1055F000930744009305A40193872700239F07FE88
:10560000E39CB7FE6FF0DFFC9387650023920500F3
:105610001305E5FF1309E9FF0357290093872700C6
:10562000239FE7FEE318A9FE239C05006FF05FFAB5
:10563000130101FB232291042320210523261104B9
:1056400023248104130905009384050097000000BA
:10565000E78040EA6316050E1385040097000000FA
:10566000E78040E913040500631C050C93058100E5
:105670001305090097000000E780C0EE9305410282
:105680001385040097000000E780C0ED03578100F8
:10569000835741026380E706930720009306800149
:1056A000130681003306F60003560600631C06024B
:1056B000130641023306F600035606006314060281
:1056C00093872700E39ED7FC130504008320C104C1
:1056D00003248104832441040329010413010105E7
:1056E0006780000013041000E30007FE1304F0FFBE
:1056F0006FF09FFD13061000638407001306F0FF90
:105700009307000093058001130781003307F7001A
:1057100083560700130741023307F70003570700BA
:105720006398E60093872700E390B7FE6FF0DFF9F8
:1057300013040600E36AD7F83304C0406FF0DFF8C3
:105740001304E0FF6FF05FF88357250193C7F7FF5D
:105750001397170163100702130101FF232611009D
:10576000EFF01FD98320C10013351500130101018B
:105770006780000013050000678000009307250183
:1057800013052500231F05FEE31CF5FE83570500C6
:10579000378700001307F7FFB3E7E7002310F50092
:1057A00067800000130101FE232C810023263101B4
:1057B000232E1100232A91002328210123244101B3
:1057C00023225101930905001384050063D80510B5
:1057D0003309B040130A090093040000930AF00053
:1057E00063CE4A0313594900930500FFB305B9027C
:1057F000130A70003384854013090400634C2A03A4
:1058000093553400930780FFB385F50233848500F8
:1058100063100404333590006F00000A83D78901B8
:1058200013850900130A0AFFB3E4F400EFF01FB96F
:105830006FF01FFB83C7890113850900130989FFD6
:10584000B3E4970097000000E780C0AF6FF01FFB44
:1058500083D78901138509001304F4FF93F7170018
:10586000B3E4970097000000E78080A36FF05FFA31
:105870001385090097000000E78080B2938404FF3D
:10588000E34899FE93554400930700FFB385F50262
:10589000130970003304B4009304040063469904B0
:1058A00093553400930780FFB385F5023304B400A9
:1058B00063140404130500008320C1010324810143
:1058C00083244101032901018329C100032A8100A6
:1058D000832A4100130101026780000093840500C0
:1058E0001309F0006FF0DFF913850900EFF09FA8AE
:1058F000938484FF6FF09FFA13850900EFF01F9FD8
:105900001304F4FF6FF0DFFA83574500130101FF22
:10591000232291002326110023248100232021012A
:1059200093040500639607088317650013040000BD
:105930001309000A63D80702130504008320C1007D
:105940000324810083244100032901001301010184
:10595000678000001385040013040401EFF01FA406
:10596000E30C24FD83D76400E38607FE83D764003D
:1059700093F707F0638407021309000A8397640012
:10598000E3CC07FA13850400130414009700000009
:10599000E7800096E35489FE6FF01FFA1385040038
:1059A00097000000E780409D130484006FF01FFC07
:1059B00093F707F01304000063860700EFF05F9889
:1059C000130480FF130900F76F00400113850400E2
:1059D0001304F4FFEFF09F8CE34024F783D74400D7
:1059E000E39607FE6FF05FF59307050113052500A9
:1059F000231F05FEE31CF5FEB7C7FFFF2310F500CC
:105A0000B78700009387F7FF2311F5006780000038
:105A100013070500835607001385050083572700E9
:105A200063860600B786FFFFB3E7D7002319F500AA
:105A300003562700B78600009386F6FF930767009A
:105A4000631ED6001307A70183D6070063980602DA
:105A500093872700E39AE7FE6FF05FD213050501F5
:105A6000130787019387270083D6E7FF1305E5FF18
:105A70002311D500E398E7FE6780000017030000BC
:105A80006700C3F6130101FD232291029304050070
:105A900013054100232481022326110213840500EB
:105AA000EFF08FF803D7E4009317070193D707416E
:105AB00063C2070423120100B78600009386F6FF35
:105AC0003377D7009387E400631ED706138704005B
:105AD000835607006386060213050400EFF0DFF02B
:105AE0008320C102032481028324410213010103A4
:105AF000678000009307F0FF2312F1006FF0DFFBD7
:105B000013072700E396E7FC13050400EFF0CFEE40
:105B10001305040097000000E78080C68397E40027
:105B2000E3D007FC13050400EFF09F9CE31A05FA8D
:105B3000835724013787FFFFB3C7E7002319F40019
:105B40006FF01FFA2313E100930641009387E7FFEC
:105B500003D60700938626002392C600E398F4FE3E
:105B6000631E070023140100930504001305410080
:105B700097000000E78000EA6FF09FF6930710009F
:105B80009305F0FF130541002314F100EFF09FC1CE
:105B90006FF09FFD130101FE232C8100232A910049
:105BA00023282101232631012324410123225101ED
:105BB0001389060013840700232E110093040500A7
:105BC00093890500130A0600930A0700EFF0DFD35C
:105BD000930700093309A94063D4A704B7870000DD
:105BE0009387E7FF63CC272D938724009384A40138
:105BF00093872700239F07FEE39C97FE8320C10124
:105C00000324810183244101032901018329C10067
:105C1000032A8100832A41001301010267800000EA
:105C200063500902930700F76340F91493050900D4
:105C30001385040097000000E78000B76312051485
:105C4000638A0A2203274400832704006308F706B7
:105C50001305A40197F0FFFFE780405D8327440010
:105C600013078003638EE7166340F7121307800162
:105C70006386E71A130750036382E7181307C0000F
:105C80002324E400370701801307F7FF232AE400E9
:105C900013071000231CE4001307B0002326E400C0
:105CA0000327C400835684011307870013171700C6
:105CB0003307E4002315D7002320F40063422003B8
:105CC0000327440093070009630CF70083D784017E
:105CD0001385040093F71700B3E9F900EFF00FDC28
:105CE000832684000356440183254400139716003D
:105CF0003387E40083570700B3F7C7001306F008A3
:105D0000634AB60093861600130607009305C00089
:105D100063DAD510835644010356070093C6F6FF95
