:1000000000000000000000000000000000000000F0
:100010006F00403D130000001300000013000000BB
:100020000BA100028B210102930040160B4100003E
:1000300023A020000B41010023A220000BC10100DE
:1000400023A4200023A6300023A8400023AA5000A8
:1000500023AC600023AE700023A0800223A2900294
:1000600023A4A00223A6B00223A8C00223AAD00280
:1000700023ACE00223AEF00223A0000523A210056A
:1000800023A4200523A6300523A8400523AA500554
:1000900023AC600523AE700523A0800723A2900740
:1000A00023A4A00723A6B00723A8C00723AAD0072C
:1000B00023ACE00723AEF0071301403E13054016C2
:1000C0008BC50000EF00803F9300050003A10000F6
:1000D0000B20010203A140008B20010203A180003C
:1000E0000B21010283A1C00003A2000183A24001F1
:1000F00003A3800183A3C00103A4000283A44002E0
:1001000003A5800283A5C00203A6000383A64003C3
:1001100003A7800383A7C00303A8000483A84004A7
:1001200003A9800483A9C00403AA000583AA40058B
:1001300003AB800583ABC00503AC000683AC40066F
:1001400003AD800683ADC00603AE000783AE400753
:1001500003AF800783AFC0078BC000000B410100D5
:100160000B00000400000000000000000000000080
:10017000000000000000000000000000000000007F
:10018000000000000000000000000000000000006F
:10019000000000000000000000000000000000005F
:1001A000000000000000000000000000000000004F
:1003E00000000000EF00000173001000000000009A
:1003F00000000000130101FF23261100B7270100B0
:10040000238E077E3727010013078715B7270100C2
:100410009387477D637AF702B72701009386871594
:10042000372701001307377D3307D7401377C7FFFE
:10043000130747003307D7009387871523A00700CA
:1004400093874700E39CE7FE13050000EF00D04EC2
:10045000EF0000018320C10013010101678000004B
:10046000130101FF23261100930510003715010029
:100470001305C528EF004061371501001305C52994
:10048000EF00406A93051000371501001305854EF3
:10049000EF00805F37570000930707E29387F7FF6D
:1004A000E39E07FE6FF05FFFB707008003A507011B
:1004B0006780000013000000678000006780000074
:1004C0001375F501B707008023A4A7026780000019
:1004D000B727010023A0A77EB707008023A8A702A3
:1004E00067800000B727010023A2A77EB70700801E
:1004F00023AAA70267800000B70700801307100037
:1005000023A6E702B72701009387C77D03A707004B
:100510001337170023A0E70067800000B72701000A
:100520001307100023A4E77E67800000B7270100AF
:100530001307100023ACE77C67800000B727010099
:1005400023AC077C67800000B727010083A7C77D25
:1005500063900702B727010083A7477E3305F500A4
:10056000B70700403365F5002320B5006780000021
:10057000130710006384E70067800000B7270100BD
:1005800083A7077E3305F500B70700403365F50004
:100590002320B5006FF05FFEB727010003A7C77DDA
:1005A00063160702B725010037060040B766090049
:1005B00083A7457EB307F700B3E7C70023A0070072
:1005C00013074700E316D7FE67800000930710006B
:1005D0006304F7006780000013070000B7250100DF
:1005E00037060040B766090083A7057EB307F7000A
:1005F000B3E7C70023A0070013074700E316D7FEA1
:100600006FF05FFDB727010003A7C77D63180702DE
:1006100037250100B70500401306F0FFB766090053
:100620008327457EB307F700B3E7B70023A0C700D1
:1006300013074700E316D7FE6780000093071000FA
:100640006304F700678000001307000037250100EE
:10065000B70500401306F0FFB76609008327057E43
:10066000B307F700B3E7B70023A0C700130747009D
:10067000E316D7FE6FF01FFD130101FF23261100C3
:1006800093051000371501001305052DEF00C03F3D
:1006900093051000371501001305852EEF00C03EAD
:1006A00093051000371501001305C530EF00C03D5C
:1006B00093051000371501001305C532EF00C03C4B
:1006C00093051000371501001305C534EF00C03B3A
:1006D000930510003715010013058537EF00C03A68
:1006E00093051000371501001305453AEF00C03996
:1006F00093051000371501001305C53CEF00C03805
:1007000093051000371501001305053FEF00C037B2
:100710008320C1001301010167800000B70700803A
:1007200083A7470293F6170013E7170063840600B8
:1007300013F7E7FFB707008023A2E70267800000F6
:10074000370700808327470293E717002322F70229
:1007500067800000370700808327470293F7E7FF91
:100760002322F70267800000130101FF23261100F6
:10077000232481002322910013064000B7150100B5
:10078000938545413725010013050548EF20405961
:10079000630A050A13063000B71501009385C541A9
:1007A0003725010013050548EF2080576308050A27
:1007B00013063000B7150100938505423725010067
:1007C00013050548EF20C055630E050813063000D9
:1007D000B7150100938545423725010013050548EB
:1007E000EF200054631E0508B72401001385344828
:1007F000EF20404A13060500372401001304047F4C
:100800002320A40093853448B724010013850438BD
:10081000EF2000609387043803270400B387E700C4
:100820002380070013850438EF10800B6310050444
:10083000930510003715010013058542EF00C02411
:100840006F008000EFF05FE38320C100032481008C
:10085000832441001301010167800000EF00403450
:100860006FF09FFEEF1080106FF01FFE93051000D9
:100870003715010013050544EF0000216FF0DFFC80
:1008800013068000B71501009385854537250100C3
:1008900013050548EF20C0486302050C13068000CD
:1008A000B715010093854547372501001305054815
:1008B000EF2000476300050C13067000B715010018
:1008C000938505493725010013050548EF2040456C
:1008D000630E050A13066000B71501009385854A6B
:1008E0003725010013050548EF208043630C050AF6
:1008F00013067000B71501009385054C37250100DC
:1009000013050548EF20C041630A050A130660007D
:10091000B71501009385854D37250100130505485E
:10092000EF200040E31205F2B707008003A407019F
:1009300093050000371501001305054EEF00C014A4
:1009400013050400EF00802C9305100037150100FB
:100950001305854EEF0040136FF01FEFEFF0DFC37C
:10096000930510003715010013054546EF00C0112F
:100970006FF09FEDEFF01FC99305100037150100D0
:1009800013050548EF0040106FF01FECEFF01FBBA0
:10099000930510003715010013058549EF00C00EBF
:1009A0006FF09FEAEFF09FB8930510003715010034
:1009B0001305054BEF00400D6FF01FE9EFF0DFB3BB
:1009C00093051000371501001305854CEF00C00B8F
:1009D0006FF09FE7130101FF2326110023248100FC
:1009E0009307F00F630CF504130405009307F5FE5D
:1009F00093F7F70F13073000637AF7029307A0000D
:100A00006302F504EF00C017372701001307C77E04
:100A100083260700B727010093870748B387D700CD
:100A200023808700938616002320D7008320C100EF
:100A3000032481001301010167800000EFF01FCE45
:100A40006FF0DFFEB727010083A7C77E37270100BD
:100A5000130707483307F7002300070093F7F70150
:100A600093871700B70600801307000223A2060031
:100A700093871700E37CF7FEEFF01FCFB727010045
:100A800023A6077E6FF09FFA130101FF23261100B2
:100A90002324810023229100130405009384050080
:100AA000EF20401F93070000B705008037260100A4
:100AB0003307F4000347070023A2E5009306467FAF
:100AC00003A706001307170023A0E600938717006B
:100AD000E370F5FE638E04029377F50193871700A8
:100AE0001307F0016366F70237050080B7250100A0
:100AF00013060002232205009386457F03A7060004
:100B00001307170023A0E60093871700E394C7FE9E
:100B10008320C100032481008324410013010101CB
:100B200067800000130101DF232611201307050051
:100B3000B71601009386C64E371601001306864F7E
:100B40009305002013050100EF2080059305100098
:100B500013050100EFF05FF38320C1201301012191
:100B600067800000130101FF232611009305100088
:100B7000EFF09FF18320C1001301010167800000A5
:100B8000B707008023A2A700B72701009387477FFC
:100B900003A707001307170023A0E70067800000E2
:100BA000370700808327470293E727002322F702B5
:100BB000B727010023AA077E67800000370700805F
:100BC0008327470293E747002322F702B727010054
:100BD0009387477F03A70700930690013357D702F7
:100BE00023A0E70067800000B3D5A50093F51500AA
:100BF00063980500372501001305C51467800000C0
:100C0000372501001305851467800000130101FEDC
:100C1000232E1100232C81001304050063420530AC
:100C2000B72601009386C6149317140063C00730DB
:100C3000372701001307C7149317240063CE072E2C
:100C4000B72701009387C71413163400634C062E90
:100C5000372801001308C81413164400634A062EEF
:100C6000B72801009388C814131654006348062E51
:100C7000372601001306C6149315640063C6052EBB
:100C8000B72501009385C514131574006344052E20
:100C9000372501001305C5142324A1002322B10028
:100CA0002320C100371601001306065093050010DB
:100CB0003725010013050558EF10906E9317840037
:100CC00063C0072C372701001307C714931794003C
:100CD00063CE072AB72701009387C7149316A40091
:100CE00063CC062A372801001308C8149316B400F1
:100CF00063CA062AB72801009388C8149316C40053
:100D000063C8062AB72601009386C6141316D400BA
:100D10006346062A372601001306C6149315E4001D
:100D200063C4052AB72501009385C5141315F40083
:100D30006342052A372501001305C5142326A100A7
:100D40002324B1002322C1002320D1003725010034
:100D500093060558371601001306465193050010F7
:100D600013050558EF10D0639317040163CA0726D3
:100D7000372701001307C7149317140163C8072608
:100D8000B72701009387C7149316240163C606266C
:100D9000372801001308C8149316340163C40626CB
:100DA000B72801009388C8149316440163C206262D
:100DB000B72601009386C6141356A40013761600B6
:100DC000631E0624372601001306C61493559400AB
:100DD00093F51500639A0524B72501009385C51482
:100DE000135584001375150063160524372501007B
:100DF0001305C5142326A1002324B1002322C1001A
:100E00002320D1003725010093060558371601002D
:100E1000130646519305001013050558EF1050585E
:100E20009357740093F71700639C0720372701003E
:100E30001307C7149357640093F7170063980720AC
:100E4000B72701009387C7149356540093F61600F2
:100E500063940620372801001308C81493564400F1
:100E600093F6160063900620B72801009388C814F3
:100E70009356340093F61600639C061EB7260100B5
:100E80009386C61413562400137616006318061EA4
:100E9000372601001306C6149355140093F5150068
:100EA0006394051EB72501009385C51413741400BF
:100EB0006312041E372501001305C5142326A10063
:100EC0002324B1002322C1002320D10037240100B4
:100ED0009306045837160100130646519305001077
:100EE00013050458EF10D04B930500001305045868
:100EF000EFF09FB913050458EF10D059B727010040
:100F00009387477F03A707003305A70023A0A70007
:100F10008320C101032481011301010267800000C5
:100F2000B7260100938686146FF01FD03727010083
:100F3000130787146FF05FD0B727010093878714DA
:100F40006FF09FD037280100130888146FF0DFD0AE
:100F5000B7280100938888146FF01FD1372601004D
:100F6000130686146FF05FD1B725010093858514B1
:100F70006FF09FD137250100130585146FF0DFD185
:100F800037270100130787146FF05FD4B7270100DC
:100F9000938787146FF09FD43728010013088814B3
:100FA0006FF0DFD4B7280100938888146FF01FD545
:100FB000B7260100938686146FF05FD537260100AF
:100FC000130686146FF09FD5B7250100938585140D
:100FD0006FF0DFD537250100130585146FF01FD69C
:100FE00037270100130787146FF01FD9B7270100B7
:100FF000938787146FF05FD937280100130888148E
:101000006FF09FD9B7280100938888146FF0DFD95B
:10101000B7260100938686146FF01FDA3726010089
:10102000130686146FF09FDAB725010093858514A7
:101030006FF01FDB37250100130585146FF09FDB70
:1010400037270100130787146FF0DFDEB727010091
:10105000938787146FF05FDF372801001308881427
:101060006FF0DFDFB7280100938888146FF05FE02E
:10107000B7260100938686146FF0DFE03726010063
:10108000130686146FF05FE1B72501009385851480
:101090006FF0DFE137250100130585146FF01FE2C3
:1010A000130101FF2326110023248100931605015B
:1010B00093D60601371601001306865293050010D9
:1010C0003724010013050458EF10902D93050000FC
:1010D00013050458EFF05F9B13050458EF10903B85
:1010E000B72701009387477F03A707003305A700B1
:1010F00023A0A7008320C100032481001301010164
:10110000678000008347050093F7F70D63820702AD
:101110001307000013071700B307E50083C7070094
:1011200093F7F70DE39807FE1305070067800000AB
:10113000130700006FF05FFFB727010023ACA77E05
:1011400067800000B727010003A5877F6780000044
:10115000130101FF232611002324810093060500BB
:10116000371601001306465493050010372401007A
:1011700013050458EF10D0229305100013050458EE
:10118000EFF09F906F000000130101FF2326110074
:10119000B72701009387877F83A6070013074000C6
:1011A0006364D70893972600371701001307075386
:1011B000B387E70083A70700678007009305100047
:1011C0003715010013054555EFF01F8C8320C10032
:1011D000130101016780000093051000371501001D
:1011E00013050556EFF05F8A6FF05FFE9305100060
:1011F0003715010013054557EFF01F896FF01FFDEC
:10120000930510003715010013054558EFF0DF87EF
:101210006FF0DFFB930510003715010013058559AA
:10122000EFF09F866FF09FFA9305100037150100CD
:101230001305855AEFF05F856FF05FF9130101FF29
:1012400023268100130401019307300093068000D8
:1012500063FAA700B306A04093F6360013054500D5
:10126000B386A600B727010083A707686388070A2B
:1012700003A7070037260100130606686364D70832
:10128000138507003726010013060668938786003A
:10129000637AF700832745002320F60013054500F5
:1012A0006F00400A83254500B307D5002320F600D0
:1012B0003307D74023A0E7008327060023A2B70007
:1012C0006F00C007B3050441938505FE3387E640F0
:1012D00063EAE50623200600B388D700372701001C
:1012E00023281715138507006F004005130500001C
:1012F0006F0040051386470003270500930705008C
:10130000E376D7F803A54700E31605FEB385E700AB
:101310003728010003280815E306B8FAB7270100AB
:1013200003A50715B307A440938707FEE3E0D7FCA6
:10133000B307D500372701002328F7142320D50051
:10134000130545000324C10013010101678000005B
:101350009306C5FF630A0504B727010083A7076842
:101360006382070A03A60700B305F6006380B6048C
:101370000323C5FF338866006386070763EAF60820
:101380009388470083A74700638C070003A60700E4
:10139000B305F600638CB600638A0705E3F2F6FE38
:1013A00023A2F60023A0D800678000000327C5FF12
:1013B0003306E60023A0C70003A74700E30607FEA5
:1013C0008325C5FFB386B600E310D7FE832607004A
:1013D0003386C60023A0C7000327470023A2E700E7
:1013E00067800000B7280100938808683306C300AF
:1013F000232EC5FE83A7470023A2F60023A0D80012
:1014000067800000B7280100938808686FF05FF9D3
:10141000B7280100938808686FF09FF8130101FE58
:10142000232E1100232C8100232A9100232821013F
:101430002326310113040500138905001307C5FF96
:10144000930630009307800063FAB600B307B040FC
:1014500093F7370093864500B387D700630C0402E7
:101460008324070063E0F404B384F440930670001F
:1014700063E69606130504008320C101032481015D
:1014800083244101032901018329C10013010102C1
:101490006780000013050900EFF05FDA1304050010
:1014A0006FF05FFD13050900EFF05FD993090500A8
:1014B000630205041386C4FF6374C90013060900A0
:1014C0009305040013850900EF10C03F13050400C5
:1014D000EFF01FE8138409006FF0DFF93305F70020
:1014E0002320F7002320950013054500EFF05FE669
:1014F0006FF05FF8130405006FF0DFF7130101FFD1
:10150000232611002324810023229100B304B50275
:1015100013850400EFF09FD2130405006308050053
:101520001386040093050000EF10804B13050400A0
:101530008320C100032481008324410013010101A1
:1015400067800000130101FF23261100EFF05FE028
:101550008320C10013010101678000009307300060
:101560001303800063FAB7003303B04013733300F2
:10157000938545003303B3009308F5FFB3F7A80044
:10158000639A0718630C0518130101FF23268100D5
:1015900013040101B727010093850768372E010066
:1015A000130FC0FF930E00FE6F00000783260E1579
:1015B0003307DF4033771701330767003386DE4098
:1015C0003306C4006364E610B387E6002328FE14E4
:1015D00023A0D50023A0E60023A20600138846001E
:1015E00033060041B37716011385060063860704AE
:1015F0009307C500B307F040B3F71701938787003F
:1016000083264500638A0602B3866700637CD7069B
:1016100083A705009385470003A50500E30805F8A7
:101620000327050013084500B3060041B3F7160170
:10163000E38807FC6FF0DFFBB306F3006374D704A5
:10164000032705003307E500832F0E15E392EFFC17
:1016500037270100032707153307E440130707FE68
:1016600083280500B3881641636E170B3306F50017
:1016700033066600372701002328C7142320D5002E
:1016800013870600638A07042320F500B306F500DC
:1016900013860600B307F740130783006368F7005B
:1016A00023A0F600138546006F004002B306D30066
:1016B000B387674023A0F6008327450023A2F600E6
:1016C0002322D50023206600130546000324C10011
:1016D00013010101678000009307830063EAE700BC
:1016E0008327450023A0F500130508006FF01FFEB7
:1016F00083264500B307650023A0F5003307674044
:1017000023A0E70083A7050023A2D7001306050046
:101710006FF05FFB130500006780000013050000F9
:1017200067800000130500006FF05FFA130101FFEE
:10173000232611009305050013050008EFF01FE2B2
:101740008320C1001301010167800000130101FF24
:1017500023261100B307A04093F7F707B385A7002E
:1017600013050008EFF09FDF8320C1001301010182
:1017700067800000130101FC232E1102232C81023B
:101780001304050013068002930500001305810071
:10179000EF100025B727010083A707686388070AB1
:1017A00037270100032507151306000093050000E5
:1017B0006F0040012326D10203A7470063020702FE
:1017C0009307070083A607003306D600938515000C
:1017D00003A74700E31607FE3387D700E30CE5FCB9
:1017E000B727010083A70715370700011307070074
:1017F000B387E7403387C7402320F4002322B40097
:10180000832701012324F400832741012326F400C8
:10181000832781012328F4008327C101232AF400B0
:1018200083270102232CF400232EE4002320C4028A
:101830008327C1022322F402130504008320C1037D
:1018400003248103130101046780000013060000D4
:10185000930500006FF0DFF80325C5FF1305C5FFF2
:10186000678000001305000067800000130101FD80
:101870002326110223248102130600109305000081
:10188000372401001305046AEF1080159307F00256
:101890002300F46A372501001305457AEF00100292
:1018A00093070500372701002322A76813050000CE
:1018B000638A07008320C10203248102130101030C
:1018C000678000009305046A1305C100EF005040D3
:1018D000B727010023A2A768133515006FF09FFDFD
:1018E000130101FD232611022324810223229102E8
:1018F00013040500930505001305C100EF00503DDA
:10190000B727010023A2A76863080502B7270100D3
:101910009387076A1307F0022380E700A38007007C
:10192000130500008320C1020324810283244102A5
:1019300013010103678000001306001093050000E7
:10194000B72401001385046AEF1080091305040011
:10195000EF10403413060500930504001385046A54
:10196000EF10004B130510006FF0DFFB130101FCBB
:10197000232E1102232C8102232A910223282103E2
:10198000232631032324410323225103232061030F
:10199000B72501009385056A1305C100EF00503398
:1019A000B727010023A2A7686310050A9304C003A8
:1019B0003724010093890700372A0100371B0100F3
:1019C00037290100B71A01006F00C00293061A6997
:1019D00013064B5C9305001013050958EF10401CCB
:1019E0009305100013050958EFF00F8A9384F4FF54
:1019F000638C0404930584681305C100EF00D034A0
:101A000023A2A968631205049307846883C797001B
:101A1000638C07029307846883C7870093F70701E5
:101A2000E38607FA93061A6913868A5B930500100A
:101A300013050958EF10C016930510001305095837
:101A4000EFF08F846FF09FFA8320C103032481039A
:101A500083244103032901038329C102032A81024C
:101A6000832A4102032B0102130101046780000055
:101A7000678000001305000067800000130101FF6C
:101A80002326110013030600B727010083A747157B
:101A9000638EB704B707008023A2B70013071000B6
:101AA00023A4E70083A7870093F7870063920706C4
:101AB000370700808327870093F78700E38C07FEB2
:101AC000B727010093878715B708008037280100E2
:101AD000130888359387470003A7C80023AEE7FEA5
:101AE000E39A07FFB727010023AAB714138606005D
:101AF000B727010093878715B3856700EF00905CD7
:101B0000130500008320C10013010101678000005C
:101B1000B7270100938787156FF01FFB0347350038
:101B20001317870083472500B3E7E7001397870063
:101B300083471500B3E7E700939787000345050047
:101B40003365F50067800000B737010083A6078082
:101B50001305E5FF03A786001307E7FF637CE50095
:101B600083C726003385A70283A746013305F50006
:101B7000678000001305000067800000130101FF6B
:101B800023261100232481001304050037370100A8
:101B90000327078023100500032585009306100006
:101BA0006308D504832687006378D502631A05028B
:101BB00083460700930730006388F600232604005D
:101BC000032507016F004002032507012326A40017
:101BD000E30805FE6F000001130510006F004001CF
:101BE0002326A400EFF05FF62328A40013050000CD
:101BF0008320C100032481001301010167800000DC
:101C00009307100063F0A70CB737010003A7078004
:101C100083268700930710006378D50A130101FE1D
:101C2000232E110083470700930620006380D7020C
:101C300093063000638AD7049307100013850700CA
:101C40008320C10113010102678000001376F50FA4
:101C5000135585008325C700930620001316160030
:101C6000B305B5001305C100EFF05FE19307100065
:101C7000E31605FC8347D100939787000347C10013
:101C8000B3E7E7006FF09FFB1376F5071355750078
:101C90008325C7009306400013162600B305B50040
:101CA0001305C100EFF09FDD93071000E31805F85E
:101CB0001305C100EFF09FE69317450093D7470047
:101CC0006FF0DFF7930710001385070067800000AF
:101CD000130101FF232611002324810023229100F8
:101CE00023202101035405001304140013140401DC
:101CF000135404019307300063040404032705010F
:101D000093073000630E0702930405009377F400F5
:101D100063940702B737010003A907801307170070
:101D20002328E5000325C500631A0502035749006F
:101D3000930730006376E40023908400930700004B
:101D4000138507008320C100032481008324410000
:101D50000329010013010101678000008347290066
:101D60009387F7FF13574400B3F7E700E39607FCA8
:101D7000EFF01FE91307100093071000E372A7FCB0
:101D80000327890093073000E37CE5FA23A6A4002B
:101D9000EFF09FDB23A8A4006FF01FFA130101FFEF
:101DA000232611002324810023229100130405001F
:101DB00093840500930620001306E01FEFF01FCC6C
:101DC00013073000631605028347140093978700BA
:101DD00003470400B3E7E7009397070193D7074150
:101DE000B7B6FFFF938656A513072000638ED70072
:101DF000130507008320C1000324810083244100D0
:101E000013010101678000009306200013066003A0
:101E10009385040013050400EFF05FC66316050206
:101E2000834714009397870003470400B3E7E70054
:101E30009397070193D70741B7460000938666142E
:101E400013070000E386D7FA930620001306200547
:101E50009385040013050400EFF05FC21307100020
:101E6000E31805F80347140013178700834704009D
:101E70003367F7001317070113570741B7C7FFFF71
:101E80009387A7EB3307F7003337E0006FF05FF677
:101E9000B737010083A7078003C707009307300007
:101EA0006300F702130700008347B501939787008B
:101EB0000345A50133E5A7003365E5006780000011
:101EC0000347550113178700834745013367F70020
:101ED000131707016FF05FFD130101FD23261102A7
:101EE000232481022322910223202103232E310166
:101EF000232C4101232A510123286101232671014A
:101F000013040500138905009304060083470600A7
:101F1000130700026398E7009384140083C704004A
:101F2000E38CE7FE938717FD93B71700B384F400A3
:101F30002324040003C704009307F00163FEE700B5
:101F400093090002130A0000930A8000930BF00229
:101F5000130BE0026F00C00913050400EFF01FC26D
:101F6000230009006F00001213050400EFF05FD694
:101F7000631A0510035604001376F60093860900D1
:101F8000131656008325040113050900EFF01FAF57
:101F90006310050C834709006384070C8347B9006D
:101FA00093F78700E39207FC832744009386B700EA
:101FB0001307090013071700938717008345F7FFDE
:101FC00003C6F7FFE392C5FAE396F6FE83274400C3
:101FD00083C7B7006398070A8347B90093F70701DF
:101FE000638C070613050900EFF09FEA2324A40081
:101FF000032644001307B6009307060093871700D3
:10200000A38F37FFE39CE7FE93060A0093070A00BD
:1020100093850A001305B000138717001377F70F95
:10202000B387F40083C7070063F2F9046380770580
:10203000638C670363FCB60213881600B306D600F0
:102040002380F6009376F80F930707006FF0DFFC0C
:10205000130510006F000003130530006F008002AD
:10206000130530006F00000263845505B384E4005B
:1020700093B71702A305F60013050400EFF01FB095
:10208000E30A05EE8320C102032481028324410276
:10209000032901028329C101032A8101832A410105
:1020A000032B0101832BC100130101036780000092
:1020B00093860500930505006FF01FF9130101FBDE
:1020C00023261104232481042322910423202105A3
:1020D000232E3103232C4103232A51032328610398
:1020E00093040500B737010023A00780EFF09F9805
:1020F00013751500130420006314051293050000E6
:102100001305C100EFF09FC993071000130A0000E8
:10211000630EF51293073000130410006302F510EC
:1021200013046000631E050E930640021306D000E0
:1021300093050A001305C100EFF05F941304050036
:102140006318051403456101131585008347510188
:102150003365F5006316050013053102EFF01F9C8F
:10216000834AF100B38AAA028349E1009399890066
:102170000345D100B3E9A900338A490123A64401EC
:10218000034BC10023816401034911011319890024
:10219000834701013369F90023922401034531018A
:1021A00013158500834721013365F500631605008B
:1021B0001305F101EFF09F9613594900B3892901E6
:1021C000B38959013305354133556503130725009C
:1021D00023A4E400B7F7FFFF9387A7003305F500BA
:1021E000B7F700009387E7FF63E8A70AB707010086
:1021F000938767FF63E8E70A930720002380F400D2
:1022000033055A0123A8A40033052A0133055501DB
:1022100023AAA400A3800400B737010023A097805D
:10222000130504008320C104032481048324410492
:10223000032901048329C103032A8103832A41035B
:10224000032B0103130101056780000093060001C1
:102250001306E01B930500001305C100EFF01F8279
:1022600013041000E31E05FA834701011304600004
:10227000E38807FA13054101EFF05F8A130A0500AE
:10228000930505001305C100EFF05FB16FF09FE803
:10229000130410006FF0DFF8B7070100938767FFA2
:1022A00063FCE700930730002380F4001305B102BC
:1022B000EFF0DF866FF01FF5130460006FF05FF63C
:1022C000130101FB232611042324810423229104FA
:1022D000B737010003A40780630C0406130605004A
:1022E000A3000400930701022328F10293050100D3
:1022F0001305C102EFF05FBE93040500631E0502E3
:1023000083470100638A07048347B10093F70701FD
:102310006398070413050100EFF09FB72320A40280
:102320001305C101EFF08FFF232EA400232C04001E
:1023300093071000A300F400138504008320C10458
:1023400003248104832441041301010567800000F4
:10235000930450006FF05FFE930430006FF0DFFDD8
:10236000930430006FF05FFD130101FE232E110076
:10237000232C8100232A91002328210123263101C7
:10238000232441012322510123206101B737010099
:1023900003A40780232006006308041293090500A4
:1023A000130A06008347140093F71700130940002F
:1023B0006386070E0329C401832784013309F9408A
:1023C00063F4250113890500630A090C130B10003F
:1023D000930A00206F00800703254402EFF05F821C
:1023E000637EAB082322A40203254402EFF0CFF55D
:1023F000630C0508B384A4002324940203268401FB
:102400001376F61FB384CA406374990093040900DD
:10241000938604008325840213850900EFF00FE6FC
:10242000631A050683278401B3879700232CF400E1
:102430003309994083270A00B38797002320FA00C5
:1024400063840900B3899900630A0904832784011E
:1024500013F7F71FE31407FA834424009384F4FF6F
:1024600013D59700B3F4A40093F4F40FE39E04F69D
:10247000E39407F6032504026FF09FF6A30004001F
:10248000130910006F008001A3000400130910005D
:102490006F00C000A3000400130910001305090019
:1024A0008320C10103248101832441010329010107
:1024B0008329C100032A8100832A4100032B0100E4
:1024C0001301010267800000130950006FF01FFD27
:1024D000B737010083A7078063840706130101FC57
:1024E000232E1102232C81021386050013040500FC
:1024F000930741022322F50093054100EFF0DF9D91
:102500006318050283474100638007028347F10097
:1025100093F7070113053000638C07001305410092
:10252000EFF01F972324A40013050400EFF00FE53C
:102530008320C10303248103130101046780000089
:102540001305500067800000B737010083A707809C
:10255000638C071A130101FB232611042324810431
:102560002322910423202105232E31031389050002
:1025700013040500930741022322F50013053000E0
:10258000638805009309500E9304E0026F00C001B8
:1025900013050400EFF08FDE6F00401513050400F3
:1025A000EFF00FF3631C0516832504016380050417
:1025B000035604001376F600930600021316560025
:1025C00013054100EFF08FCB6318051483474100DA
:1025D00063800714E38437FDE38297FC8347F100AF
:1025E00093F78700E39C07FA6F00800063180512D9
:1025F0009304990083270401638C070C83474100EF
:10260000130700026380E7041307410093061901D2
:10261000130650001305500E930500026F00C00111
:1026200093841400A38FF4FE6384D402130717006D
:1026300083470700638CB700E394C7FE9307050048
:102640006FF01FFE938604006F00800093860400E5
:102650008347C1001307000293840600638CE702DE
:102660001307E0022380E60093842600A380F6008F
:102670008347D10013070002638EE700938436007E
:102680002381F6008347E1006386E70093844600D8
:10269000A381F6008347F1002304F900130501022A
:1026A000EFF0CFC72320A9008347D101939787007C
:1026B0000347C101B3E7E7002312F9008347B101E3
:1026C000939787000347A101B3E7E7002313F900BD
:1026D0002380040013050400EFF08FDF9307D5FF7C
:1026E000B337F000B307F0403375F5008320C10421
:1026F0000324810483244104032901048329C103A1
:102700001301010567800000130550006780000079
:10271000130530006F00800013051000232804000B
:1027200093073000E314F5FC930499006FF05FFA0F
:102730006340050663C6050613860500930505007C
:102740001305F0FF630C060293061000637AB600CF
:102750006358C0001316160093961600E36AB6FE7F
:102760001305000063E6C500B385C5403365D50099
:1027700093D6160013561600E39606FE67800000F7
:1027800093820000EFF05FFB138505006780020075
:102790003305A04063D80500B305B0406FF0DFF902
:1027A000B305B04093820000EFF01FF93305A0405D
:1027B000678002009382000063CA0500634C050035
:1027C000EFF09FF71385050067800200B305B04066
:1027D000E35805FE3305A040EFF01FF63305B04087
:1027E00067800200130605001305000093F615002C
:1027F000638406003305C50093D515001316160033
:10280000E39605FE67800000130101FC130300003E
:102810002326B1016F00C000130101FC130300FF68
:102820002328A101232A9101232C8101232E710148
:102830006F00C000130101FC130300FE232061039D
:102840002322510323244103232631032328210378
:10285000232A9102232C8102232E1102330161408D
:1028600067800200130101FF232021012322910030
:10287000232481002326110067800200832DC100DC
:1028800013010101032D0100832C4100032C810061
:10289000832BC10013010101032B0100832A410096
:1028A000032A81008329C1001301010103290100CA
:1028B00083244100032481008320C100130101010E
:1028C00067800000B3C7A50093F73700B308C500C1
:1028D000639207069307300063FEC70493773500C1
:1028E000130705006398070613F6C8FF930706FE53
:1028F000636CF708637CC7029386050093070700A3
:1029000003A80600938747009386460023AE07FF7F
:10291000E3E8C7FE9307F6FFB387E74093F7C7FFE7
:10292000938747003307F700B385F5006368170105
:102930006780000013070500E37C15FF83C70500CF
:102940001307170093851500A30FF7FEE36817FF21
:102950006780000083C605001307170093773700D0
:10296000A30FD7FE93851500E38007F883C6050003
:102970001307170093773700A30FD7FE9385150031
:10298000E39A07FC6FF05FF683A6050083A245007B
:1029900083AF850003AFC50083AE050103AE4501DB
:1029A00003A3850103A8C501938545022320D70011
:1029B00083A6C5FF232257002324F7012326E7011E
:1029C0002328D701232AC701232C6700232E0701C0
:1029D00013074702232ED7FEE368F7FA6FF09FF143
:1029E0001303F00013070500637EC3029377F7001B
:1029F0006390070A63920508937606FF1376F60044
:102A0000B386E6002320B7002322B7002324B700B3
:102A10002326B70013070701E366D7FE63140600F9
:102A200067800000B306C34093962600970200001B
:102A3000B38656006780C6002307B700A306B70019
:102A40002306B700A305B7002305B700A304B7000A
:102A50002304B700A303B7002303B700A302B70002
:102A60002302B700A301B7002301B700A300B700FA
:102A70002300B7006780000093F5F50F939685005B
:102A8000B3E5D50093960501B3E5D5006FF0DFF609
:102A90009396270097020000B386560093820000A9
:102AA000E78006FA93800200938707FF3307F74019
:102AB0003306F600E378C3F66FF0DFF3130101F796
:102AC000232C8106232E1106232A91062320E108B8
:102AD0002322F108232401092326110913040500E8
:102AE0006348060A9307802013030600231AF100A7
:102AF0002324B100232CB10013860600930701089C
:102B0000630803041303F3FF9304F0FF93860700A5
:102B10009305810023286100232E6100231B91006F
:102B20002322F100EF00803B635695009307B00825
:102B30002320F40083278100238007008320C1071E
:102B400003248107832441071301010967800000E2
:102B50009304F0FF9386070093058100232801006A
:102B6000232E0100231B91002322F100EF000037E8
:102B7000635695009307B0082320F4008320C10713
:102B800003248107832441071301010967800000A2
:102B90001307B0082320E5001305F0FF6FF01FFEB8
:102BA000130101F6232AF108232C81062326D108DC
:102BB0002328E108232C0109232E110997F700008F
:102BC00093870758232E1106232A910603A4070092
:102BD00063CA050A93078020231AF1002324A10069
:102BE000232CA100638C05041307C1089387F5FF0C
:102BF0009304F0FF9306070093058100130504007A
:102C00002328F100232EF100231B91002322E10051
:102C1000EF00C02C635695009307B0082320F40002
:102C200083278100238007008320C10703248107B5
:102C3000832441071301010A678000009307C1083C
:102C40009304F0FF938607009305810013050400A9
:102C500023280100232E0100231B91002322F100D1
:102C6000EF00C027635695009307B0082320F400B7
:102C70008320C10703248107832441071301010A2C
:102C8000678000009307B0082320F4001305F0FFCD
:102C90006FF01FFE9377350013070500639C070450
:102CA000B7867F7F9386F6F79305F0FF13074700FB
:102CB0000326C7FFB377D600B387D700B3E7C700B3
:102CC000B3E7D700E384B7FE8346C7FFB307A74047
:102CD0000346D7FF0345E7FF63800604630A060245
:102CE0003335A0003305F5001305E5FF67800000CC
:102CF000E38806FA83470700130717009376370027
:102D0000E39807FE3307A7401305F7FF678000002D
:102D10001385D7FF678000001385C7FF6780000019
:102D2000630A060CB367B50093F737006390070892
:102D30009307300063FCC7068327050003A705003F
:102D4000639EE70A1306C6FF6306060A3703FFFE03
:102D50001303F3EF33876700B788808093C7F7FFCB
:102D6000B377F70093880808B3F71701639407084F
:102D7000130E30006F00C0020327050083A6050074
:102D8000B30767001348F7FFB3F70701B3F717015D
:102D90006316D7061306C6FF630E0604639C07047A
:102DA0001305450093854500E368CEFC0347050005
:102DB00083C605001306F6FF639AE602630C06025B
:102DC000630A0702930715003306C5006F00000170
:102DD0006302F60293871700630E070093851500C0
:102DE00003C7070083C60500E304D7FE3305D740B9
:102DF000678000001305000067800000034705009E
:102E000083C605001306F6FFE38CE6FA6FF01FFE9B
:102E1000B3E7A50093F73700639A070693073000DE
:102E20001307050063E8C7066300060603C805002C
:102E30009306F6FF938515002300070193071700FB
:102E4000630808023306C700B306D7006F004001CD
:102E500003C7F5FF93871700A38FE7FE630C0700F6
:102E6000938515003388F640E394C7FE6780000021
:102E7000138806003387070163000806938717004D
:102E8000A38F07FEE39CE7FE6780000013070500A1
:102E90006FF09FF93703FFFEB78880801303F3EFCD
:102EA00093880808130E300083A60500B3876600D8
:102EB00013C8F6FFB3F70701B3F71701E39807F656
:102EC000130747001306C6FF232ED7FE9385450040
:102ED000E36CCEFC6FF05FF567800000130101E149
:102EE0002326111E2324811E2324811D1384050003
:102EF0002324B100130C06002328D1002322911EA5
:102F00002320211F232E311D232C411D232A511D37
:102F10002328611D2326711D2322911D2320A11D1D
:102F2000232EB11B2322A102EF50D02083270500BE
:102F3000138507002328F102EFF0DFD58357C40083
:102F40002324A1022328010E232A010E232C010E83
:102F5000232E010E93F707086388070083270401D7
:102F6000639407006F10C06E930C0C0003C70C0035
:102F70009307C1102322F10E2326010E2324010EF4
:102F8000232C010023260102232C0102232E0102FF
:102F9000232001042322010423220100930B0001BA
:102FA000138D0700032A41026304073A9306500277
:102FB0006314D7006F10005413840C006F00C0001E
:102FC000638ED70E130409008347140013091400FD
:102FD000E39807FEB3049941638C04368326C10E3F
:102FE0000327810E23209D01B38696001307170047
:102FF00023229D002326D10E2324E10E9306700088
:10300000130D8D0063C2E60C8327410003471400B3
:10301000B38797002322F100630C07321303F0FFFC
:1030200093041900034E1900A303010C13040000BC
:103030001309000093099000130BA002130C030066
:1030400093841400930A0E001307A00593870AFEC9
:103050006368F71E97E600009386C68E9397270055
:10306000B387D70083A70700B387D700678007001F
:1030700013050A00EF50100C832745001385070045
:103080002322F104EFF01FC12320A104930A0500BD
:1030900013050A00EF50100A83278500232EF10242
:1030A00063840A006F10405003CE04006FF05FF994
:1030B0001369090203CE04006FF09FF8B30499412D
:1030C000E38E04F46FF09FF1832581001306410E17
:1030D00013050A00EF70C06D631A0502130DC110CD
:1030E0006FF09FF2832581001306410E13050A003D
:1030F000EF70006CE30605048327C10063880700B6
:103100008325C10003254102EF20D01D83278100C4
:1031100083D7C70093F70704638407006F20C05666
:103120008320C11E0324811E032541008324411EE8
:103130000329011E8329C11D032A811D832A411DE4
:10314000032B011D832BC11C032C811C832C411CD0
:10315000032D011C832DC11B1301011F678000007B
:1031600097E70000938707482326F1029377090227
:1031700013030C00638007108327010193877700F6
:1031800093F787FF03AC070083AD470013878700E1
:103190002328E1009377190063880700B367BC0117
:1031A000638407006F10803E9379F9BF9307200076
:1031B000A303010C1307F0FFE308E30E3367BC0120
:1031C00013F9F9F7630407006F00D07BE310032EB7
:1031D000639A076213FB1900930C011B63040B0035
:1031E0006F10C03693090B0063546B009309030002
:1031F0000347710C2326010023200102232E010026
:10320000232A010063040764938919006F00006496
:103210001304000093860AFD93841400931724007E
:1032200083CAF4FFB3878700939717003384F600AF
:1032300093860AFDE3F2D9FE93870AFEE37CF7E06A
:1032400063880A1023065115A303010C930910008B
:10325000130B1000930CC1146F00005E97E7000081
:10326000938787392326F1029377090213030C0011
:10327000E39407F00327010193770901032C07006A
:10328000130747002328E100638407006F10802D97
:1032900093770904639407006F10402C131C0C01F2
:1032A000135C0C01930D00006FF0DFEE03CE040001
:1032B000136949006FF0DFD89377090213030C00FC
:1032C000E3960714832601011377090193874600CB
:1032D00003AC06006312074C13770904631407005C
:1032E0006F10901A131C0C01135C0C01930D00005D
:1032F0002328F1006F005013832601019377090200
:1033000013874600638407006F10402693770901F6
:10331000638407006F1050049377090463840700E7
:103320006F10102713790920631409006F10D00261
:10333000832701012328E1000327410083A7070019
:10334000938C04002380E70003C70C00E31007C63A
:103350008327C10EE38C07DA032481000325410291
:103360001306410E93050400EF7080448357C40098
:103370006FF05FDA03CE04009307C0066314FE000B
:103380006F10002C136909016FF09FCB03CE04006E
:10339000930780066314FE006F10802913690904E7
:1033A0006FF01FCA03270101B787FFFF93C7078389
:1033B0002314F10C930747002328F10097E700003E
:1033C0009387472213030C002326F102032C0700E6
:1033D000930D00009369290093072000930A80074A
:1033E0006FF01FDD1377890013030C0063040700DF
:1033F0006F10C01D832701011305010B23268101D6
:103400009387770093F787FF83A5070003A64700FC
:10341000938787002328F100EFC090790327010BE1
:103420000323C1002328E10E0327410B232AE10EC9
:103430000327810B232CE10E0327C10B232EE10E62
:103440001305010F23266100EF5000482326A10C2D
:10345000130720000323C1006314E5006F10C06749
:10346000130710006314E5006F10D0051307100652
:103470006394EA006F20C012130710046394EA00FB
:103480006F10904B93F7FAFD1307F0FF2324F1041C
:103490006314E3006F10101A130770046394E700BD
:1034A0006F20801D032BC10F232A210513670910EC
:1034B000032F010F832D410F832E810F63540B00C7
:1034C0006F200004232E01041309070023260100A6
:1034D00003278104930760046314F7006F10902A98
:1034E000930750046314F7006F20800C130C010B3A
:1034F0009307010D1307C10C930603001308C10DB8
:103500001306200093050C0013050A00232E61000A
:103510002328E10B232CE101232CD10B232AD101F9
:10352000232AB10B232E610BEF40C00A83278104AD
:1035300013077004930C0500832E4101032F8101B2
:103540000323C1016384E7006F20404183274105C5
:1035500013F71700630407006F2000110327C10D44
:10356000B3079741232CF1008327C10C1307700484
:10357000232AF100832781046394E7006F10900FE2
:1035800083278104130760046394E7006F10903869
:10359000832741019305100493F6FA0F1387F7FF71
:1035A000832781042326E10C130600006398B700EB
:1035B0009386F60093F6F60F13061000230AD10C3B
:1035C0009306B002635A07008327410113071000D6
:1035D0009306D0023307F740A30AD10C930690005C
:1035E00063C4E6006F2040241308310E1306080060
:1035F0001305A000130330066F00C00013860500FA
:1036000013870600B367A7029305F6FF93870703A6
:10361000A30FF6FEB346A702E342E3FE13870603B9
:103620001377F70F9306E6FFA38FE5FE63E4060129
:103630006F2040339305610D6F00800003C70600C3
:103640009385150093861600A38FE5FEE39806FF89
:103650001307510E9307610D3307C7403387E70007
:103660009306410DB307D740232CF1028327810134
:103670008326810313071000338BD7006344F700C0
:103680006F20002683278102330BFB00832741052F
:103690009349FBFF93D9F94113F9F7BF1369091057
:1036A000B3793B0123200102232E0100232A0100CC
:1036B0008327C105639407006F1010031307D0021E
:1036C000A303E10C13030000938919006F00001895
:1036D0009377090213030C0093690901639E075451
:1036E000832701019387470003270101930D000001
:1036F0002328F100032C0700930710006FF05FAB45
:1037000083270101A303010C13030C0083AC070002
:10371000138C4700E3860C761307F0FF6314E30075
:103720006F104045130603009305000013850C003D
:1037300023286100EF50D0362326A1000323010186
:10374000631405006F1010148327C100338B974159
:103750000347710C9349FBFF93D9F9412328810159
:103760002326010023200102232E0100232A010029
:10377000B3793B0113030000E31807A86F00000DA5
:103780009377090213030C0013690901639007483A
:10379000832701019387470003270101930D000050
:1037A0002328F100032C07006F00004813698900EB
:1037B00003CE04006FF0DF889377090213030C0037
:1037C00093690901639E0748832701019387470096
:1037D000032701012328F100032C0700935DFC411E
:1037E00013870D006340072A9307F0FF630EF34829
:1037F000B367BC0113F9F9F7639607486304030044
:103800006F10C06313030000130B0000930C011B27
:103810006FF05F9D03270101A303010C93091000C2
:1038200083270700130747002328E1002306F1142C
:10383000130B1000930CC114232601001303000086
:1038400023200102232E0100232A0100937F290057
:1038500063840F0093892900937D49080327C10ED3
:1038600063960D0033083441E34200138346710C24
:10387000638A06028326810E1306710C2320CD0075
:103880001307170013061000938616002322CD009D
:103890002326E10E2324D10E13067000130D8D0094
:1038A0006342D60C638A0F028326810E1306810CB5
:1038B0002320CD001307270013062000938616004F
:1038C0002322CD002326E10E2324D10E13067000FF
:1038D000130D8D00E34ED61C93060008638ADD5657
:1038E000330C6341634C806793760910639E0640F6
:1038F0008327810E3307670123209D0193871700DB
:1039000023226D012326E10E2324F10E930670007D
:10391000130D8D00E3C6F604137949006306090010
:103920003309344163482007635434011384090088
:1039300083274100B38787002322F100631407FA2D
:103940008327C1002324010E638807008325C1005B
:1039500013050A00EF200019130DC110938C040009
:103960006FF09F9E832581001306410E13050A0008
:1039700023246104232AF103EF609063631E05F69C
:103980000327C10E130DC11003238104832F4103AC
:103990006FF05FF18327810E17DC0000130C4C11D0
:1039A00063D02B07130B7000832A81006F00C000C7
:1039B000130909FF63D62B05130707019387170027
:1039C00023208D0123227D012326E10E2324F10EE5
:1039D000130D8D00E35EFBFC1306410E93850A0078
:1039E00013050A00EF60D05C631805F0130909FFA6
:1039F0000327C10E8327810E130DC110E3CE2BFBCD
:103A0000330727019387170023208D0123222D01DF
:103A10002326E10E2324F10E93067000E3D6F6F080
:103A2000832581001306410E13050A00EF605058EC
:103A3000631405EC0327C10E6FF01FEF93770902A3
:103A400013030C00639C07208327010113770901EE
:103A500093874700630407006F10D06F1377090442
:103A6000631407006F10C023032701012328F1000E
:103A700093090900031C0700935DFC4113870D00A7
:103A8000E35407D6330C8041B3378001B30DB04106
:103A9000B38DFD409307D002A303F10C1307F0FF91
:103AA00093071000631CE3F013071000638EE71CFC
:103AB000130720006388E7209306011B6F00800036
:103AC00093860C009397DD0113777C00135C3C0018
:103AD0001307070333EC870193DD3D00A38FE6FE58
:103AE000B367BC01938CF6FFE39C07FC13F6190047
:103AF00063040620130600036300C7209386E6FFD5
:103B00009307011BA38FCCFE338BD7401389090089
:103B1000938C06006FF00FED9307B002A303F10C36
:103B200003CE04006FF0CFD18327010103CE040040
:103B300003A40700938747002328F100635204D0B1
:103B400033048040136949006FF08FCF136909086F
:103B500003CE04006FF0CFCE83CA04009387140015
:103B600063946A016F10D05C93860AFD938407000A
:103B7000130C000063ECD9CC9384140093172C0031
:103B800083CAF4FFB387870193971700338CD7005C
:103B900093860AFDE3F2D9FE6FF04FCB136919004B
:103BA00003CE04006FF0CFC98347710C03CE04002D
:103BB000639807C893070002A303F10C6FF04FC886
:103BC0009377090213030C0063960706832601010D
:103BD000137709019387460003AC060063040700CE
:103BE0006F10905A13770904631407006F10C00711
:103BF000131C0C012328F100135C0C01930D000031
:103C000093090900930710006FF08FDA83270101F1
:103C10009387770093F787FF03AC070083AD4700D6
:103C2000138787002328E1009379F9BF93070000E9
:103C30006FF00FD89309090083270101938777005C
:103C400093F787FF1387870003AC070083AD470016
:103C50002328E100930710006FF08FD59309090026
:103C6000832701019387770093F787FF03A7470016
:103C7000938687002328D10003AC0700930D07002B
:103C80006FF05FB693090900E3900D54930790001D
:103C9000E3EC8753130C0C03A307811B1389090062
:103CA000130B1000930CF11A6FF0CFD31307100011
:103CB0006394E7006F108018130720009309090030
:103CC000E39CE7DE8326C102930C011B9377FC0083
:103CD000B387F60083C707001397CD01135C4C0030
:103CE000938CFCFF336C870193DD4D002380FC0037
:103CF000B367BC01E39C07FC9307011B338B97411F
:103D0000138909006FF00FCE9306500663D856331F
:103D10008326010F9305010A1305010B2328D10AFD
:103D20008326410F232AE1022320010A232AD10AF4
:103D30008326810F2322010A2324010A232CD10A7E
:103D40008326C10F2326010A232ED10AEF90D030FB
:103D500003274103631405588327810E97E600006B
:103D60009386468B130717002320DD0093871700E7
:103D7000930610002322DD002326E10E2324F10EFA
:103D800013077000130D8D00E340F7428327C10C29
:103D90000327810163CAE700937719006396070040
:103DA0000327C10E6FF05FB78327010383268102CB
:103DB0000327C10E2320FD008327810E3387E600F1
:103DC0002322DD00938717002326E10E2324F10E22
:103DD00093067000130D8D00E3CAF602832781015C
:103DE000138BF7FFE35A60B38327810EE3D66B4B47
:103DF000130C7000832A81006F00C000130B0BFFAF
:103E0000E3DC6B49130707019387170097D600007F
:103E1000938606CB2320DD0023227D012326E10E9D
:103E20002324F10E130D8D00E35AFCFC1306410E02
:103E300093850A0013050A00EF609017631E05AA18
:103E40000327C10E8327810E130DC1106FF01FFBD6
:103E5000330C3441E35680A98326810E63D48B0B47
:103E6000232A910293070D0093040C00138D0C007C
:103E7000138C0900930C0B0093090400930D700040
:103E800003248100130B03006F00C000938404FF20
:103E900063DA9B04130707019386160017D6000008
:103EA000130606C223A0C70023A277012326E10E32
:103EB0002324D10E93878700E3DADDFC1306410E3D
:103EC0009305040013050A00EF60900E631605A227
:103ED000938404FF0327C10E8326810E9307C1102C
:103EE000E3CA9BFA1384090093090C00138C0400A5
:103EF0008324410313030B00138B0C00930C0D0060
:103F0000138D0700330787019386160097D70000AB
:103F1000938707BB2320FD0023228D012326E10E7A
:103F20002324D10E13067000130D8D00E35AD69A88
:103F3000832581001306410E13050A00232A61021E
:103F4000EF601007631A059A032341030327C10E8C
:103F5000130DC110330C6341E35880998326810E01
:103F600063D88B09232A9102930D700093040C00EF
:103F7000130C0B00138B0900930904000324810028
:103F80006F00C000938404FF63DA9B0413070701EA
:103F90009386160097D70000938787B22320FD00F1
:103FA00023227D012326E10E2324D10E130D8D0043
:103FB000E3DADDFC1306410E9305040013050A0045
:103FC000EF60007F631A0592938404FF0327C10EFC
:103FD0008326810E130DC110E3CA9BFA13840900D6
:103FE00093090B00130B0C00138C04008324410372
:103FF000330787019386160097D70000938747AC55
:104000002320FD0023228D012326E10E2324D10E3F
:1040100013067000130D8D00E358D68C83258100A4
:104020001306410E13050A00EF6080786316058CB5
:104030000327C10E130DC1106FF01F8B0326810ED5
:10404000832781019306100023209D011307170089
:10405000130B1600130C8D0063DEF63E9306100062
:104060002322DD002326E10E2324610F9306700036
:1040700063C666498327810283260103130B1B0055
:104080003307F7002320DC002322FC002326E10E67
:104090002324610F93067000130C8C0063C46649DF
:1040A0008326010F8327810113081B002328D10ACF
:1040B0008326410F9305010A1305010B232AD10A18
:1040C0008326810F2320E102930A0800232CD10AC2
:1040D0008326C10F232E01012320010A232ED10A9A
:1040E0009386F7FF232AD1002322010A2324010A01
:1040F0002326010AEF904076130D8C0083264101A0
:104100000328C10103270102630A053693871C00B7
:104110003307D7002320FC002322DC002326E10EF6
:104120002324510F9307700063CC577593070C013C
:10413000930A2B00130C0D00138D070083268103B7
:104140009307410D2320FC003387E6002322DC0087
:104150002326E10E2324510F9307700063DE57FBE3
:10416000832581001306410E13050A00EF604064A9
:10417000630405006FE05FF80327C10E130DC11043
:104180006FF08FF9930909006FF01F928326810E5B
:1041900017DC0000130CCC9163D00B0D2324910489
:1041A0002326210593070D0013090C00138D0C0025
:1041B000138C0900930C0B00930904009302700008
:1041C000232AF10383248100130B03001304080046
:1041D0006F00C000130404FF63DA8B0413070701A8
:1041E0009386160023A0270123A277012326E10E40
:1041F0002324D10E93878700E3DED2FC1306410E01
:104200009385040013050A00EF60805A63040500DB
:104210006FE09FEE130404FF0327C10E8326810E77
:104220009307C11093027000E3CA8BFA13080400CD
:10423000832F4103138409008324810493090C0014
:10424000130C09000329C10413030B00138B0C008A
:10425000930C0D00138D070033070701938616009A
:1042600023208D0123220D012326E10E2324D10ECC
:1042700013067000130D8D00635AD6DE832581006E
:104280001306410E13050A0023246104232AF103B7
:10429000EF600052630405006FE01FE60327C10EC4
:1042A000130DC11003238104832F41036FF00FDC32
:1042B000832581001306410E13050A00232A61029B
:1042C000EF60004F630405006FE01FE30327C10E9A
:1042D000130DC110032341036FF00FE00326C10C3F
:1042E000635AC05E8327810183264101138B070037
:1042F00063C8F630635660038326810E3307670177
:1043000023209D019386160023226D012326E10EB2
:104310002324D10E13067000130D8D00E346D62220
:104320009346FBFF8327410193D6F641337BDB00A5
:10433000338B674163466037832741019376094099
:10434000B38AFC006394063C032BC10C83278101D4
:104350006346FB0093761900E38E06208326010353
:1043600083278102130670002320DD008326810E3F
:104370003307F7002322FD00938616002326E10E63
:104380002324D10E130D8D00E34AD64C83268101E0
:10439000B387DC00338B6641B3875741130C0B00A6
:1043A00063D46701138C0700635680038327810E53
:1043B0003307870123205D019387170023228D0196
:1043C0002326E10E2324F10E93067000130D8D00B9
:1043D000E3C0F64E9347FCFF93D7F741337CFC00D4
:1043E000330B8B41635A60D38327810E63D66B6B8B
:1043F000130C7000832A81006F00C000130B0BFFA9
:1044000063DC6B69130707019387170097C60000E9
:104410009386066B2320DD0023227D012326E10EF7
:104420002324F10E130D8D00E35AFCFC1306410EFC
:1044300093850A0013050A00EF60803763040500C6
:104440006FE09FCB0327C10E8327810E130DC11090
:104450006FF0DFFA93751900E39205C02322DD00A7
:104460002326E10E2324610F9307700063CA67417E
:10447000930A2600130D0D016FF05FCCE350D0CCF2
:1044800063C4DB006F100047930A7000138D0600B1
:10449000832C8100130B08006F000001130D0DFF2A
:1044A00063D4AB79130B1B001307070197C70000F8
:1044B000938707612320FC0023227C012326E10E41
:1044C0002324610F130C8C00E3DA6AFD1306410EFE
:1044D00093850C0013050A00EF60802D630405002E
:1044E0006FE09FC10327C10E032B810E130CC11077
:1044F0006FF0DFFA13890C006FE05FB28325810053
:104500001306410E13050A00EF60802A63040500BC
:104510006FE09FBE0327C10E032B810E130CC11049
:104520006FF05FB5832581001306410E13050A0065
:10453000EF600028630405006FE01FBC0327C10E75
:10454000032B810E130CC1106FF09FB5930700036E
:10455000A307F11A930CF11A6FE0DFC893770920D3
:10456000E3940708930D00006FE0DFC203264100CB
:1045700083A706002328E1009356F64123A0C70035
:1045800023A2D700938C04006FE01FDC9307000385
:10459000136929002304F10CA304510D9379F9BF89
:1045A000930720006FE0DFC08327C10303CE040020
:1045B000639407006FE0DFA883C7070063940700D8
:1045C0006FE01FA8136909406FE09FA783270101CF
:1045D00003A70700938747002328F10083250700DE
:1045E00003264700832687000327C7002328B10E30
:1045F000232AC10E232CD10E232EE10E6FE05FE49F
:10460000138B0600E34A60CF6FF09FD183258100B2
:104610001306410E13050A00EF60801963040500BC
:104620006FE09FAD0327C10E130DC1106FF00FFB9C
:1046300003CE140013690920938414006FE05FA077
:1046400003CE140013690902938414006FE05F9F86
:104650000325410293050004EF4040398327810080
:1046600023A0A70023A8A700631405006F10403003
:104670000327810093070004232AF7006FE0DF8EF1
:1046800093076000130B030063E2676E93090B004E
:104690002328810197DC0000938C4CF76FF0CF99B1
:1046A0008326810E63D46B65930A7000032C81000E
:1046B0006F00C000130B0BFF63DA6B631307070176
:1046C0009386160097C700009387873F2320FD003D
:1046D00023227D012326E10E2324D10E130D8D000C
:1046E000E3DADAFC1306410E93050C0013050A0009
:1046F000EF60000C630405006FE01FA00327C10EEC
:104700008326810E130DC1106FF0DFFA832781011C
:10471000032CC101232A9100232A2103232481048D
:1047200083240102232E310123209103B38DFC0049
:10473000130B7000032901040324C10393060D0029
:1047400083298100832C410463080C0863980408C2
:104750001304F4FF130CFCFF8327810E330727019A
:1047600023A096019387170023A226012326E10E9A
:104770002324F10E93868600634CFB12034604004B
:10478000B3855D41130D060063D4C500138D05008C
:104790006356A0030326810E3307A70123A0560109
:1047A0001306160023A2A6012326E10E2324C10E20
:1047B0006340CB3003460400938686009345FDFF9B
:1047C00093D5F541B377BD00330DF640634CA0019E
:1047D000B38ACA00E31C0CF6638604669384F4FF74
:1047E0006FF09FF70326810E63C8AB016F000006D0
:1047F000130D0DFF63DCAB0513070701130616004D
:1048000097C700009387C72B23A0F60023A2760149
:104810002326E10E2324C10E93868600E35ACBFCA7
:104820001306410E9385090013050A00EF505078D6
:10483000630405006FE05F8C130D0DFF0327C10EAD
:104840000326810E9306C110E3C8ABFB3307A70113
:104850001306160097C700009387872623A0F6004B
:1048600023A2A6012326E10E2324C10E6348CB68B0
:104870000346040093868600B38ACA006FF09FF552
:10488000832581001306410E13050A00EF50507274
:10489000630405006FE05F860326810E0327C10EC7
:1048A000130D4111930A1600130CC1106FF01F89EC
:1048B0001306410E9385090013050A00EF50506F4F
:1048C000630405006FE05F830327C10E9306C110E8
:1048D0006FF0DFEA8326810E97D50000938585D39C
:1048E0002320BD00130717009305100093861600C0
:1048F0002322BD002326E10E2324D10E9305700050
:10490000130D8D0063CED506631E06268327810115
:1049100093761900B3E6F600639406006FE0DFFFBC
:104920008326010383278102130670002320DD0004
:104930008326810E3387E7002322FD00938616002D
:104940002326E10E2324D10E93088D00634CD64A12
:10495000832781019386160023A098013387E700FF
:1049600023A2F8002326E10E2324D10E9307700022
:10497000138D880063C4D7006FE01FFA6FF04FFEFD
:10498000832581001306410E13050A00EF50506283
:10499000630405006FE04FF60326C10C0327C10E28
:1049A000130DC1106FF05FF6832581001306410ED1
:1049B00013050A00EF50D05F630405006FE0CFF3EA
:1049C000130DC1106FF08FBC930C011B93070000F7
:1049D00013F9094023269100232A3101130BF00F0C
:1049E00093890C00232E6100930C0A008324C103D9
:1049F000138A0D00930D0D00130D0400138407009E
:104A00006F0040021306A0009306000013050C007F
:104A100093050A00EF70901763080A50130C050005
:104A2000138A05001306A0009306000013050C006E
:104A300093050A00EF70D05813050503A38FA9FE54
:104A4000130414009389F9FFE30E09FA83C60400E6
:104A5000E31AD4FAE30864FB631E0A4C9307900040
:104A600063EA874D138A0C00938C09008329410166
:104A70009307011B232C8100232E910213040D00A8
:104A80000323C1018324C100138D0D00338B974193
:104A9000138909006FE00FF597C600009386460260
:104AA00033076701938717002320DD006FE05FE580
:104AB0001306410E9385090013050A00EF50504F6D
:104AC000630405006FE04FE3034604000327C10EB3
:104AD0009306C1106FF09FCE8327010F9305010A43
:104AE0001305010B2328F10A8327410F2320010A14
:104AF0002322010A232AF10A8327810F2324010A92
:104B00002326010A232CF10A8327C10F232EF10A41
:104B1000EF809075634005460347710C930670045F
:104B200097DC0000938C0CAB63CA5621232601004E
:104B300023200102232E0100232A01001379F9F713
:104B400093093000130B30001303000063040700C7
:104B50006FE08FEB6FE09FCF83270101938C040000
:104B600083A707002328E1000327410023A0E700D3
:104B70006FE08FFD13850C00EFE0CF91130B050064
:104B80006FE01FBD83260103832781029305700018
:104B90002320DD008326810E3387E7002322FD00DA
:104BA000938616002326E10E2324D10E93088D0050
:104BB00063CAD524E35E06D8930500FF330BC040DB
:104BC000E35AB624130C7000832A81006F00C000E2
:104BD000130B0BFFE3D06B25130707019386160019
:104BE00097C700009387C7ED23A0F80023A27801A0
:104BF0002326E10E2324D10E93888800E35ADCFC9F
:104C00001306410E93850A0013050A00EF50503A2F
:104C1000630405006FE04FCE0327C10E8326810E8B
:104C20009308C1106FF0DFFA93060D00930A1B0082
:104C300093078C003307D70017C60000130646E819
:104C40002322DC002320CC002326E10E2324510F55
:104C500093067000E3C656C3938A1A00138D87002B
:104C6000138C07006FF08FCD1377092063040716AC
:104C70002328F100137CFC0F930D00009309090019
:104C8000930710006FE0CFD213770920630E07124D
:104C9000137CFC0F930D00002328F1006FE0DFF878
:104CA0001377092063040710032701019309090002
:104CB0002328F100030C0700935DFC4113870D00CE
:104CC0006FE05FB28327C10F63C607120347710C01
:104CD0009306700497DC0000938C4C90E3D856E563
:104CE00097DC0000938CCC8F6FF05FE43307670193
:104CF0009386160097C70000938787DC2320FD006A
:104D000023226D012326E10E2324D10E1306700009
:104D1000130D8D006352D6E2832581001306410EE8
:104D200013050A00EF50D028630405006FE0CFBCE4
:104D30000327C10E130DC1106FF00FE097DC0000C8
:104D4000938C8C896FF09FDE832581001306410EC2
:104D500013050A00EF50D025630405006FE0CFB9BA
:104D60000327C10E130DC1106FF08FDB130B600012
:104D70006FF0DF9183268101B387DC00338B6641BE
:104D8000338C574163588BE5130C0B006FF08FE4A5
:104D9000832701012328E1000327410083A707009F
:104DA000938C04002390E7006FE00FDA03270101E2
:104DB000930909002328F100032C0700935DFC41AF
:104DC00013870D006FE01FA2930D00002328F10050
:104DD0006FE09FE52328F100930D0000930909007F
:104DE000930710006FE0CFBC137CFC0F930D000005
:104DF0006FE04FBA9307D002A303F10C1307D00260
:104E00006FF01FED832581001306410E13050A0084
:104E1000EF50101A630405006FE00FAE0326C10CBB
:104E20000327C10E8326810E9308C110E35206B2F8
:104E30006FF09FD8130360006FE0CFE6930909007D
:104E40006FE05FE5832C010283278101232E81021D
:104E5000138D0600B386FC0083244101032941031E
:104E6000032481048329C10163F056CF938A06008D
:104E70006FF08FCD832741011307D0FF63C4E70094
:104E8000635AF300938AEAFF93F7FAFD2324F104AF
:104E90006FE00FF0032781018327410163C2E724FC
:104EA00003274105138B07001377170063060700DC
:104EB00003278102338BE7008327410513F707405F
:104EC00063060700832741016346F07C9349FBFF9B
:104ED00093D9F941B3793B01930A7006232001026B
:104EE000232E01006FE0CFFC0347710C1303000079
:104EF000630407006FE04FB16FE05F951306410E4A
:104F00009385090013050A00EF50900A6304050019
:104F10006FE08F9E034604000327C10E9306C11065
:104F2000B38ACA006FF01F8B93079000E3E887AF46
:104F30006FF05FB38327010483254104130400004D
:104F4000B389F9401386070013850900EFD05FECA1
:104F500003C814001306A0009306000033380001B4
:104F600013050C0093050A00B3840401EF7000429E
:104F70006FF0DFAA9307D002A303F10C1307D0024E
:104F80006FF0DFB9130C010B930603001307C10C7C
:104F90001308C10D9307010D1306300093050C0093
:104FA00013050A00232E61002328E10B232CE101C5
:104FB000232CD10B232AD101232AB10B232E610BE1
:104FC000EF2040618346050013070003930C0500A2
:104FD000832E4101032F81010323C101E384E60AEB
:104FE0009307010A232CF1040327C10CB3096700BE
:104FF000B3893C018325810513050C00232A610038
:105000002328E10B232AB10B232CD10B232E610B78
:105010002320010A2322010A2324010A2326010A4C
:10502000EF809003138709000323410163140500F7
:105030006FE00FD30327C10D13060003636437012C
:105040006FE00FD293071700232EF10C2300C70047
:105050000327C10DE36837FF6FE08FD08325810000
:105060001306410E13050A00EF5080746304050017
:105070006FE08F88032BC10C0327C10E130DC110E5
:105080006FF0CFB00347710C232881012320010268
:10509000232E0100232A010093090300130B0300B0
:1050A00013030000630407006FE00F966FE00FFA30
:1050B000832581001306410E13050A00EF50406F4F
:1050C000630405006FE04F83032BC10C832781012C
:1050D0000327C10E130DC110338B67416FF08FAFE3
:1050E0008327810103278102930A7006338BE7002F
:1050F00083274101635CF0768327410513F707405E
:10510000631C07589349FBFF93D9F941B3793B01DD
:105110006FF0DFDC8327410513F717008327410178
:1051200033676700635CF07C63180772032B4101EF
:10513000930A60066FF05FFC930700032304F10CF1
:1051400093078005A304F10C936729001307300629
:10515000232AF10423260100930CC1146340673C09
:10516000032BC10F93F7FAFD2324F104232E01042E
:1051700013692910032F010F832D410F832E810FF7
:1051800063440B3813071006638AEA5813071004A8
:105190006384EA006FE0CFB3130C010B13050C001E
:1051A000232A61022328E10B232CD10B232E610B30
:1051B000232AB10BEFB080401306C10CEF50C02280
:1051C000138605009305050013050C00EFB0401E83
:1051D0000327010B930701099309010A2328E1081A
:1051E0000327410B1306010893850700232AE108D2
:1051F0000327810B13850900138B0700232CE1087B
:105200000327C10B2326C104232C3105232EE108DB
:105210003707FC3F2326E108232001082322010849
:1052200023240108EF8090180327010A8326410AEE
:105230000328810A832EC10A9385090013050C00F7
:105240002328E10A2320E102232AD10A232ED100B8
:10525000232C010B232C0101232ED10B232AD10156
:105260002320010A2322010A2324010A2326010AFA
:10527000EF80805E832E4101032881018326C101D6
:1052800003270102032341036316050013061000E0
:105290002326C10C97C7000093870736232AF10203
:1052A000930DF3FF232A9101232091062322510716
:1052B00023268106232AA107232C4107232E9107A9
:1052C00023242107938C0D0023286106130D07006A
:1052D000938D0600130A0800938A0E0003248105AB
:1052E00093040B006F0040059305040013050C00A8
:1052F0002320C102232EE101232CF101232AF10BEB
:10530000232CE10B232EC10A2328210B2320010A81
:105310002322010A2324010A2326010AEF80C05315
:10532000938CFCFF832F8101032FC101032601020F
:105330006304050E232A6101B707034013860400A6
:105340009305040013050C00232EF1082320A10B64
:105350002322B10B2324410B2326510B23280108C0
:10536000232A0108232C0108EF80500413050C00A8
:10537000EFA09056930505009309050013050C0056
:10538000032BC10B832A010B032A410B0329810B39
:10539000EFA090690327010B0326C1049385040045
:1053A0002320E1080327410B13050400232E610984
:1053B0002322E1080327810B23285109232A4109CD
:1053C0002324E1080327C10B232C21092326E1080C
:1053D000EF90807E832741030329010A832F410A2E
:1053E000338737018327410103470700032F810AD1
:1053F0000326C10A138B1700A30FEBFE2328910588
:105400009307F0FF130D0900938D0F00130A0F008F
:10541000930A0600E39AFCEC032301078325810528
:1054200093020900B70DFE3F13050C00232C610009
:10543000832401062328510A23205106232AF10B35
:105440002326F105232CE10B2320E103232EC10A9F
:10545000232EC1002320010A2322010A2324010A4A
:105460002326B10BEF80004C832A41060324C1069A
:10547000032D4107032A8107832CC10703298106D5
:1054800003238101634EA00A83220106832FC104F6
:10549000032F01020326C1018325810513050C009A
:1054A0002328510A232AF10B232CE10B232EC10AB6
:1054B0002320010A2322010A2324010A2326B10BF7
:1054C000EF808039032381016316050093F91900E9
:1054D00063980906832701059306000313871700C5
:1054E0003307EB0063C80700130B1B00A30FDBFEA1
:1054F000E31C67FFB3079B41232CF1006FE0CF86CD
:105500002326010013090700370700809307D00204
:10551000334B6701232EF1046FF0DFC693051300B0
:1055200013050A0023266100EF30404C930C050060
:105530000323C100630E05442326A1006FF05FC260
:105540008327410113070B00232EF10C832741030E
:105550008346FBFF03C6F7006310D60293050003E2
:10556000A30FB7FE0327C10D9307F7FF232EF10CFE
:105570008346F7FFE306D6FE1386160093059003D5
:105580001376F60F6386B600A30FC7FE6FF09FF683
:105590008327410303C6A700A30FC7FE6FF09FF543
:1055A000930700032304F10C930780076FF09FB962
:1055B00093091300130C010B1308C10D9307010D80
:1055C0001307C10C938609001306200093050C00F5
:1055D00013050A00232E61002328E10B232CE1018F
:1055E000232CD10B232AD101232AB10B232E610BAB
:1055F000EF10507E832E4101032F81010323C1014F
:10560000930C05009307010AB3893C01232CF10494
:105610006FF05F9E330767019386160097B700000F
:105620009387074A23A0F80023A268012326E10EEE
:105630002324D10E1306700093888800635AD6B0D5
:10564000832581001306410E13050A00EF50401612
:10565000630405006FD05FAA0327C10E8326810E65
:105660009308C1106FF0CFAE9307010AB3896C00A5
:10567000232CF1046FF01F98630403006FD09FE2A6
:10568000130310006FD01FE29307F0FF2322F100F5
:105690006FD01FA9930A70068325C1038327410198
:1056A0002320010203C70500232E01001306F00F7B
:1056B000630EC702635CF70283C61500B387E74039
:1056C000638E06000327C101938515001307170099
:1056D000232EE100138706006FF09FFD8326010251
:1056E000938616002320D1026FF09FFC232AF1003D
:1056F000032701028327C101232EB1023387E7006C
:10570000832701043307F702330B67019349FBFF3B
:1057100093D9F941B3793B016FD09FF9130C010B79
:1057200013050C00232A61022328E10B232CD10B43
:10573000232E610B232AB10BEFA050681306C10C76
:10574000EF40904A138605009305050013050C00F1
:10575000EFA010460327010B930701099309010AE3
:105760002328E1080327410B13060108938507004E
:10577000232AE1080327810B13850900138B0700F7
:10578000232CE1080327C10B2326C104232C310558
:10579000232EE1083707FC3F2326E10823200108D8
:1057A0002322010823240108EF8040400327010A37
:1057B0008326410A0328810A832EC10A93850900A2
:1057C00013050C002328E10A2320E102232AD10A31
:1057D000232ED100232C010B232C0101232ED10BCE
:1057E000232AD1012320010A2322010A2324010AAA
:1057F0002326010AEF804006832E41010328810100
:105800008326C10103270102032341036316050018
:10581000130610002326C10C97C70000938787DC6E
:10582000232AF1026FF0DFA79306610D63180600CB
:1058300093060003230BD10C9306710D9307011BF4
:105840003386F640130707039307D60D2380E6003F
:10585000232CF1026FD09FE103278102930A600697
:10586000338BE700330B6B006FF01F89330BFB406A
:10587000130B1B009349FBFF93D9F941B3793B010B
:105880006FF0CFE59305010A13050C00232E61008C
:105890002328E10B232CE101232CD10B232AD10156
:1058A000232CB104232AB10B232E610B2320010AE0
:1058B0002322010A2324010A2326010AEF70D0794A
:1058C000832E4101032F81010323C101630E05F0E3
:1058D00013071000330767402326E10C6FF00FF128
:1058E0008327410513F71700631407006FD01FDAF1
:1058F0006FD05FD993070D006FF0CFB3631A070025
:1059000093091000930A6006130B10006FF00FDD6F
:1059100083278102930A6006138B1700330B6B00F9
:105920009349FBFF93D9F941B3793B016FF00FDB4A
:1059300003270101032C07001307470063540C00E1
:10594000130CF0FF03CE14002328E100938407001A
:105950006FD00FEF930909006FD09FE79309030001
:105960006FF05FCA93072000232CF1026FD01FD085
:10597000032741029307C0002320F7009307F0FF9D
:105980002322F1006FD0CFF9930909006FD0DFD542
:105990008326810083D7C60013E707049307070017
:1059A0002396E6006FD00FF7130101FE232C810030
:1059B000232A910023282101232631011384050085
:1059C000232E110097C90000938909371309050098
:1059D000EF30D01A83A68900371700009307F7FE2F
:1059E00083A446003384874093F4C4FF33049400B7
:1059F0001354C4001304F4FF1314C400634EE400F2
:105A00009305000013050900EF40501883A7890093
:105A1000B38797006306F50213050900EF305016AF
:105A20008320C10103248101832441010329010151
:105A30008329C100130500001301010267800000E3
:105A4000B305804013050900EF4050149307F0FFA1
:105A5000630AF50497D700009387479083A7070050
:105A600003A78900B384844093E4140033848740FF
:105A7000130509002322970097D7000023A0878EE3
:105A8000EF3010108320C1010324810183244101E0
:105A9000032901018329C10013051000130101022C
:105AA000678000009305000013050900EF40100E09
:105AB00003A789009306F000B307E540E3DEF6F4A0
:105AC00097C600009386066883A6060093E7170032
:105AD0002322F7003305D54097D7000023A0A788DD
:105AE0006FF09FF3638E0512130101FF23248100E1
:105AF000232291001384050093040500232611003E
:105B0000EF30D0078325C4FF130784FF17C50000BB
:105B10001305852293F7E5FF3306F7008326460039
:105B20000328850093F6C6FF6304C81A2322D60013
:105B300093F515003308D6006394050A032384FF08
:105B40008325480097C800009388881F3307674063
:105B500003288700B387670093F5150063041815C1
:105B60000323C70023266800232403016384051E42
:105B700093E617002322D7002320F6009306F01F98
:105B800063ECF60A93D73700938617009396360096
:105B9000832545003305D5000326050093D627400D
:105BA00093071000B397D700B3E7B700930685FFBC
:105BB0002326D7002324C70097C6000023A0F61889
:105BC0002320E5002326E600032481008320C10072
:105BD0001385040083244100130101016F30407AD2
:105BE0008325480093F51500639E0502B387D7000F
:105BF00097C800009388C8148326860013E817000E
:105C0000B305F700638416170326C60023A6C60053
:105C10002324D6002322070123A0F5006FF01FF6EE
:105C20006780000093E61700232ED4FE2320F600A1
:105C30009306F01FE3F8F6F493D69700130640009E
:105C40006368D60E93D66700938596031386860302
:105C500093953500B305B50083A60500938585FFB0
:105C60006388D51203A646001376C6FF63F6C70005
:105C700083A68600E398D5FE83A5C6002326B70039
:105C80002324D7000324810023A4E5008320C1003E
:105C9000138504008324410023A6E60013010101BB
:105CA0006F30006E63980514832586000326C600B6
:105CB000B387F60093E6170023A6C5002324B60099
:105CC0002322D7003307F7002320F7006FF0DFEF20
:105CD00093F51500B387D70063900502832584FFF1
:105CE0003307B7408326C70003268700B387B70072
:105CF0002326D60023A4C60097C600009386C64478
:105D000013E6170083A606002322C70017C600006B
